{
  "contractName": "Ethbay",
  "abi": [
    {
      "inputs": [],
      "payable": false,
      "stateMutability": "nonpayable",
      "type": "constructor"
    },
    {
      "anonymous": false,
      "inputs": [
        {
          "indexed": false,
          "internalType": "uint256",
          "name": "itemId",
          "type": "uint256"
        },
        {
          "indexed": false,
          "internalType": "string",
          "name": "itemName",
          "type": "string"
        },
        {
          "indexed": false,
          "internalType": "uint256",
          "name": "itemPrice",
          "type": "uint256"
        },
        {
          "indexed": false,
          "internalType": "address payable",
          "name": "itemOwner",
          "type": "address"
        },
        {
          "indexed": false,
          "internalType": "bool",
          "name": "isItemSold",
          "type": "bool"
        }
      ],
      "name": "ItemReady",
      "type": "event"
    },
    {
      "anonymous": false,
      "inputs": [
        {
          "indexed": false,
          "internalType": "uint256",
          "name": "itemId",
          "type": "uint256"
        },
        {
          "indexed": false,
          "internalType": "string",
          "name": "itemName",
          "type": "string"
        },
        {
          "indexed": false,
          "internalType": "uint256",
          "name": "itemPrice",
          "type": "uint256"
        },
        {
          "indexed": false,
          "internalType": "address payable",
          "name": "itemOwner",
          "type": "address"
        },
        {
          "indexed": false,
          "internalType": "bool",
          "name": "isItemSold",
          "type": "bool"
        }
      ],
      "name": "ItemSold",
      "type": "event"
    },
    {
      "constant": true,
      "inputs": [
        {
          "internalType": "uint256",
          "name": "",
          "type": "uint256"
        }
      ],
      "name": "items",
      "outputs": [
        {
          "internalType": "uint256",
          "name": "itemId",
          "type": "uint256"
        },
        {
          "internalType": "string",
          "name": "itemName",
          "type": "string"
        },
        {
          "internalType": "uint256",
          "name": "itemPrice",
          "type": "uint256"
        },
        {
          "internalType": "address payable",
          "name": "itemOwner",
          "type": "address"
        },
        {
          "internalType": "bool",
          "name": "isItemSold",
          "type": "bool"
        }
      ],
      "payable": false,
      "stateMutability": "view",
      "type": "function"
    },
    {
      "constant": true,
      "inputs": [],
      "name": "storeName",
      "outputs": [
        {
          "internalType": "string",
          "name": "",
          "type": "string"
        }
      ],
      "payable": false,
      "stateMutability": "view",
      "type": "function"
    },
    {
      "constant": true,
      "inputs": [],
      "name": "totalNumber",
      "outputs": [
        {
          "internalType": "uint256",
          "name": "",
          "type": "uint256"
        }
      ],
      "payable": false,
      "stateMutability": "view",
      "type": "function"
    },
    {
      "constant": false,
      "inputs": [
        {
          "internalType": "string",
          "name": "_itemName",
          "type": "string"
        },
        {
          "internalType": "uint256",
          "name": "_itemPrice",
          "type": "uint256"
        }
      ],
      "name": "createItem",
      "outputs": [],
      "payable": false,
      "stateMutability": "nonpayable",
      "type": "function"
    },
    {
      "constant": false,
      "inputs": [
        {
          "internalType": "uint256",
          "name": "_itemId",
          "type": "uint256"
        }
      ],
      "name": "buyItem",
      "outputs": [],
      "payable": true,
      "stateMutability": "payable",
      "type": "function"
    }
  ],
  "bytecode": "0x6080604052600060015534801561001557600080fd5b506040518060400160405280601281526020017f45454345353731204554484241592e434f4d000000000000000000000000000081525060009080519060200190610061929190610067565b5061010c565b828054600181600116156101000203166002900490600052602060002090601f016020900481019282601f106100a857805160ff19168380011785556100d6565b828001600101855582156100d6579182015b828111156100d55782518255916020019190600101906100ba565b5b5090506100e391906100e7565b5090565b61010991905b808211156101055760008160009055506001016100ed565b5090565b90565b610e618061011b6000396000f3fe60806040526004361061004a5760003560e01c8063521936e61461004f5780638c551742146100df578063bfb231d2146101b1578063c0daddfd146102b1578063e7fb74c7146102dc575b600080fd5b34801561005b57600080fd5b5061006461030a565b6040518080602001828103825283818151815260200191508051906020019080838360005b838110156100a4578082015181840152602081019050610089565b50505050905090810190601f1680156100d15780820380516001836020036101000a031916815260200191505b509250505060405180910390f35b3480156100eb57600080fd5b506101af6004803603604081101561010257600080fd5b810190808035906020019064010000000081111561011f57600080fd5b82018360208201111561013157600080fd5b8035906020019184600183028401116401000000008311171561015357600080fd5b91908080601f016020809104026020016040519081016040528093929190818152602001838380828437600081840152601f19601f820116905080830192505050505050509192919290803590602001909291905050506103a8565b005b3480156101bd57600080fd5b506101ea600480360360208110156101d457600080fd5b810190808035906020019092919050505061068c565b60405180868152602001806020018581526020018473ffffffffffffffffffffffffffffffffffffffff1673ffffffffffffffffffffffffffffffffffffffff16815260200183151515158152602001828103825286818151815260200191508051906020019080838360005b83811015610272578082015181840152602081019050610257565b50505050905090810190601f16801561029f5780820380516001836020036101000a031916815260200191505b50965050505050505060405180910390f35b3480156102bd57600080fd5b506102c6610787565b6040518082815260200191505060405180910390f35b610308600480360360208110156102f257600080fd5b810190808035906020019092919050505061078d565b005b60008054600181600116156101000203166002900480601f0160208091040260200160405190810160405280929190818152602001828054600181600116156101000203166002900480156103a05780601f10610375576101008083540402835291602001916103a0565b820191906000526020600020905b81548152906001019060200180831161038357829003601f168201915b505050505081565b600082511161041f576040517f08c379a00000000000000000000000000000000000000000000000000000000081526004018080602001828103825260178152602001807f4974656d2773206e616d6520697320726571756972656400000000000000000081525060200191505060405180910390fd5b60008111610495576040517f08c379a00000000000000000000000000000000000000000000000000000000081526004018080602001828103825260188152602001807f4974656d2773207072696365206973207265717569726564000000000000000081525060200191505060405180910390fd5b6001600081548092919060010191905055506040518060a0016040528060015481526020018381526020018281526020013373ffffffffffffffffffffffffffffffffffffffff16815260200160001515815250600260006001548152602001908152602001600020600082015181600001556020820151816001019080519060200190610524929190610d40565b506040820151816002015560608201518160030160006101000a81548173ffffffffffffffffffffffffffffffffffffffff021916908373ffffffffffffffffffffffffffffffffffffffff16021790555060808201518160030160146101000a81548160ff0219169083151502179055509050507f74f33d71e2a1a9fde47c54652835cb3701b10b3b9a446a67135cae7cc29d2528600154838333600060405180868152602001806020018581526020018473ffffffffffffffffffffffffffffffffffffffff1673ffffffffffffffffffffffffffffffffffffffff16815260200183151515158152602001828103825286818151815260200191508051906020019080838360005b8381101561064a57808201518184015260208101905061062f565b50505050905090810190601f1680156106775780820380516001836020036101000a031916815260200191505b50965050505050505060405180910390a15050565b6002602052806000526040600020600091509050806000015490806001018054600181600116156101000203166002900480601f01602080910402602001604051908101604052809291908181526020018280546001816001161561010002031660029004801561073e5780601f106107135761010080835404028352916020019161073e565b820191906000526020600020905b81548152906001019060200180831161072157829003601f168201915b5050505050908060020154908060030160009054906101000a900473ffffffffffffffffffffffffffffffffffffffff16908060030160149054906101000a900460ff16905085565b60015481565b610795610dc0565b600260008381526020019081526020016000206040518060a001604052908160008201548152602001600182018054600181600116156101000203166002900480601f0160208091040260200160405190810160405280929190818152602001828054600181600116156101000203166002900480156108565780601f1061082b57610100808354040283529160200191610856565b820191906000526020600020905b81548152906001019060200180831161083957829003601f168201915b50505050508152602001600282015481526020016003820160009054906101000a900473ffffffffffffffffffffffffffffffffffffffff1673ffffffffffffffffffffffffffffffffffffffff1673ffffffffffffffffffffffffffffffffffffffff1681526020016003820160149054906101000a900460ff1615151515815250509050600081606001519050600082600001511180156108ff5750600154826000015111155b610971576040517f08c379a00000000000000000000000000000000000000000000000000000000081526004018080602001828103825260178152602001807f4974656d2073686f756c6420626520696e2073746f726500000000000000000081525060200191505060405180910390fd5b81604001513410156109eb576040517f08c379a00000000000000000000000000000000000000000000000000000000081526004018080602001828103825260168152602001807f7061796d656e742073686f756c6420626520676f6f640000000000000000000081525060200191505060405180910390fd5b816080015115610a63576040517f08c379a00000000000000000000000000000000000000000000000000000000081526004018080602001828103825260188152602001807f73686f756c64206e6f7420796574206265656e20736f6c64000000000000000081525060200191505060405180910390fd5b8073ffffffffffffffffffffffffffffffffffffffff163373ffffffffffffffffffffffffffffffffffffffff161415610b05576040517f08c379a00000000000000000000000000000000000000000000000000000000081526004018080602001828103825260128152602001807f63616e6e6f74206275792068696d73656c66000000000000000000000000000081525060200191505060405180910390fd5b33826060019073ffffffffffffffffffffffffffffffffffffffff16908173ffffffffffffffffffffffffffffffffffffffff168152505060018260800190151590811515815250508160026000858152602001908152602001600020600082015181600001556020820151816001019080519060200190610b88929190610d40565b506040820151816002015560608201518160030160006101000a81548173ffffffffffffffffffffffffffffffffffffffff021916908373ffffffffffffffffffffffffffffffffffffffff16021790555060808201518160030160146101000a81548160ff0219169083151502179055509050508073ffffffffffffffffffffffffffffffffffffffff166108fc349081150290604051600060405180830381858888f19350505050158015610c43573d6000803e3d6000fd5b507fad7837e5405c69a7520239b5e069b74fc3a460b96c25e057cfa4043f627cdde56001548360200151846040015133600160405180868152602001806020018581526020018473ffffffffffffffffffffffffffffffffffffffff1673ffffffffffffffffffffffffffffffffffffffff16815260200183151515158152602001828103825286818151815260200191508051906020019080838360005b83811015610cfd578082015181840152602081019050610ce2565b50505050905090810190601f168015610d2a5780820380516001836020036101000a031916815260200191505b50965050505050505060405180910390a1505050565b828054600181600116156101000203166002900490600052602060002090601f016020900481019282601f10610d8157805160ff1916838001178555610daf565b82800160010185558215610daf579182015b82811115610dae578251825591602001919060010190610d93565b5b509050610dbc9190610e07565b5090565b6040518060a00160405280600081526020016060815260200160008152602001600073ffffffffffffffffffffffffffffffffffffffff1681526020016000151581525090565b610e2991905b80821115610e25576000816000905550600101610e0d565b5090565b9056fea265627a7a723158202685e7be05fec4e58638d313b9fb339e6c724b53e51c2ef78feb29ad6a0b8a6564736f6c63430005100032",
  "source": "pragma solidity ^0.5.0;\r\n\r\ncontract Ethbay {\r\n    string public storeName;\r\n    uint public totalNumber = 0;\r\n    mapping(uint => Item) public items;\r\n    struct Item {\r\n        uint itemId;\r\n        string itemName;\r\n        uint itemPrice;\r\n        address payable itemOwner;\r\n        bool isItemSold;\r\n    }\r\n\r\n    event ItemReady(\r\n        uint itemId,\r\n        string itemName,\r\n        uint itemPrice,\r\n        address payable itemOwner,\r\n        bool isItemSold\r\n    );\r\n\r\n    event ItemSold(\r\n        uint itemId,\r\n        string itemName,\r\n        uint itemPrice,\r\n        address payable itemOwner,\r\n        bool isItemSold\r\n    );\r\n\r\n    constructor() public {\r\n        storeName = \"EECE571 ETHBAY.COM\";\r\n    }\r\n\r\n    function createItem(string memory _itemName, uint _itemPrice) public {\r\n        require(bytes(_itemName).length > 0, \"Item's name is required\");\r\n        require(_itemPrice > 0, \"Item's price is required\");\r\n        totalNumber++;\r\n        items[totalNumber] = Item(totalNumber, _itemName, _itemPrice, msg.sender, false);\r\n        emit ItemReady(totalNumber, _itemName, _itemPrice, msg.sender, false);\r\n    }\r\n\r\n    function buyItem(uint _itemId) public payable {\r\n        Item memory _item = items[_itemId];\r\n        address payable _seller = _item.itemOwner;\r\n        require(_item.itemId > 0 && _item.itemId <= totalNumber, 'Item should be in store');\r\n        require(msg.value >= _item.itemPrice, 'payment should be good');\r\n        require(!_item.isItemSold, 'should not yet been sold');\r\n        require(msg.sender != _seller, 'cannot buy himself');\r\n\r\n        //Purchase it\r\n        _item.itemOwner = msg.sender;\r\n        //Market the product purchased\r\n        _item.isItemSold = true;\r\n        //Update the product\r\n        items[_itemId] = _item;\r\n        //Pay the seller some ether\r\n        address(_seller).transfer(msg.value);\r\n        //Trigger an event\r\n        emit ItemSold(totalNumber, _item.itemName, _item.itemPrice, msg.sender, true);\r\n    }\r\n\r\n}",
  "sourcePath": "E:\\EECE571Project\\src\\contracts\\Ethbay.sol",
  "compiler": {
    "name": "solc",
    "version": "0.5.16+commit.9c3226ce.Emscripten.clang"
  },
  "schemaVersion": "3.0.23",
  "updatedAt": "2020-04-24T09:07:50.487Z",
  "devdoc": {
    "methods": {}
  },
  "userdoc": {
    "methods": {}
  }
}