{
  "contractName": "EthDonation",
  "abi": [
    {
      "inputs": [],
      "payable": false,
      "stateMutability": "nonpayable",
      "type": "constructor"
    },
    {
      "anonymous": false,
      "inputs": [
        {
          "indexed": false,
          "internalType": "uint256",
          "name": "donateNo",
          "type": "uint256"
        },
        {
          "indexed": false,
          "internalType": "address",
          "name": "donor",
          "type": "address"
        },
        {
          "indexed": false,
          "internalType": "uint256",
          "name": "serialNo",
          "type": "uint256"
        },
        {
          "indexed": false,
          "internalType": "uint256",
          "name": "amount",
          "type": "uint256"
        },
        {
          "indexed": false,
          "internalType": "string",
          "name": "itemName",
          "type": "string"
        },
        {
          "indexed": false,
          "internalType": "string",
          "name": "trackingNo",
          "type": "string"
        },
        {
          "indexed": false,
          "internalType": "uint256",
          "name": "status",
          "type": "uint256"
        }
      ],
      "name": "updateDonation",
      "type": "event"
    },
    {
      "anonymous": false,
      "inputs": [
        {
          "indexed": false,
          "internalType": "uint256",
          "name": "serialNo",
          "type": "uint256"
        },
        {
          "indexed": false,
          "internalType": "address",
          "name": "donee",
          "type": "address"
        },
        {
          "indexed": false,
          "internalType": "uint256",
          "name": "itemId",
          "type": "uint256"
        },
        {
          "indexed": false,
          "internalType": "string",
          "name": "itemName",
          "type": "string"
        },
        {
          "indexed": false,
          "internalType": "uint256",
          "name": "amount",
          "type": "uint256"
        },
        {
          "indexed": false,
          "internalType": "uint256",
          "name": "claimed",
          "type": "uint256"
        },
        {
          "indexed": false,
          "internalType": "uint256",
          "name": "transporting",
          "type": "uint256"
        },
        {
          "indexed": false,
          "internalType": "uint256",
          "name": "received",
          "type": "uint256"
        },
        {
          "indexed": false,
          "internalType": "bool",
          "name": "isAcceptable",
          "type": "bool"
        }
      ],
      "name": "updateItem",
      "type": "event"
    },
    {
      "constant": true,
      "inputs": [],
      "name": "dn",
      "outputs": [
        {
          "internalType": "uint256",
          "name": "",
          "type": "uint256"
        }
      ],
      "payable": false,
      "stateMutability": "view",
      "type": "function"
    },
    {
      "constant": true,
      "inputs": [
        {
          "internalType": "uint256",
          "name": "",
          "type": "uint256"
        }
      ],
      "name": "donationRecord",
      "outputs": [
        {
          "internalType": "uint256",
          "name": "donateNo",
          "type": "uint256"
        },
        {
          "internalType": "address",
          "name": "donor",
          "type": "address"
        },
        {
          "internalType": "uint256",
          "name": "serialNo",
          "type": "uint256"
        },
        {
          "internalType": "uint256",
          "name": "amount",
          "type": "uint256"
        },
        {
          "internalType": "string",
          "name": "itemName",
          "type": "string"
        },
        {
          "internalType": "string",
          "name": "trackingNo",
          "type": "string"
        },
        {
          "internalType": "uint256",
          "name": "status",
          "type": "uint256"
        }
      ],
      "payable": false,
      "stateMutability": "view",
      "type": "function"
    },
    {
      "constant": true,
      "inputs": [
        {
          "internalType": "uint256",
          "name": "",
          "type": "uint256"
        }
      ],
      "name": "donations",
      "outputs": [
        {
          "internalType": "uint256",
          "name": "donateNo",
          "type": "uint256"
        },
        {
          "internalType": "address",
          "name": "donor",
          "type": "address"
        },
        {
          "internalType": "uint256",
          "name": "serialNo",
          "type": "uint256"
        },
        {
          "internalType": "uint256",
          "name": "amount",
          "type": "uint256"
        },
        {
          "internalType": "string",
          "name": "itemName",
          "type": "string"
        },
        {
          "internalType": "string",
          "name": "trackingNo",
          "type": "string"
        },
        {
          "internalType": "uint256",
          "name": "status",
          "type": "uint256"
        }
      ],
      "payable": false,
      "stateMutability": "view",
      "type": "function"
    },
    {
      "constant": true,
      "inputs": [
        {
          "internalType": "uint256",
          "name": "",
          "type": "uint256"
        }
      ],
      "name": "itemRecord",
      "outputs": [
        {
          "internalType": "uint256",
          "name": "serialNo",
          "type": "uint256"
        },
        {
          "internalType": "address",
          "name": "donee",
          "type": "address"
        },
        {
          "internalType": "uint256",
          "name": "itemId",
          "type": "uint256"
        },
        {
          "internalType": "string",
          "name": "itemName",
          "type": "string"
        },
        {
          "internalType": "uint256",
          "name": "initialRequired",
          "type": "uint256"
        },
        {
          "internalType": "uint256",
          "name": "amount",
          "type": "uint256"
        },
        {
          "internalType": "uint256",
          "name": "claimed",
          "type": "uint256"
        },
        {
          "internalType": "uint256",
          "name": "transporting",
          "type": "uint256"
        },
        {
          "internalType": "uint256",
          "name": "received",
          "type": "uint256"
        },
        {
          "internalType": "bool",
          "name": "isAcceptable",
          "type": "bool"
        }
      ],
      "payable": false,
      "stateMutability": "view",
      "type": "function"
    },
    {
      "constant": true,
      "inputs": [
        {
          "internalType": "uint256",
          "name": "",
          "type": "uint256"
        }
      ],
      "name": "items",
      "outputs": [
        {
          "internalType": "uint256",
          "name": "serialNo",
          "type": "uint256"
        },
        {
          "internalType": "address",
          "name": "donee",
          "type": "address"
        },
        {
          "internalType": "uint256",
          "name": "itemId",
          "type": "uint256"
        },
        {
          "internalType": "string",
          "name": "itemName",
          "type": "string"
        },
        {
          "internalType": "uint256",
          "name": "initialRequired",
          "type": "uint256"
        },
        {
          "internalType": "uint256",
          "name": "amount",
          "type": "uint256"
        },
        {
          "internalType": "uint256",
          "name": "claimed",
          "type": "uint256"
        },
        {
          "internalType": "uint256",
          "name": "transporting",
          "type": "uint256"
        },
        {
          "internalType": "uint256",
          "name": "received",
          "type": "uint256"
        },
        {
          "internalType": "bool",
          "name": "isAcceptable",
          "type": "bool"
        }
      ],
      "payable": false,
      "stateMutability": "view",
      "type": "function"
    },
    {
      "constant": true,
      "inputs": [],
      "name": "sn",
      "outputs": [
        {
          "internalType": "uint256",
          "name": "",
          "type": "uint256"
        }
      ],
      "payable": false,
      "stateMutability": "view",
      "type": "function"
    },
    {
      "constant": true,
      "inputs": [],
      "name": "storeName",
      "outputs": [
        {
          "internalType": "string",
          "name": "",
          "type": "string"
        }
      ],
      "payable": false,
      "stateMutability": "view",
      "type": "function"
    },
    {
      "constant": false,
      "inputs": [
        {
          "internalType": "string",
          "name": "_itemName",
          "type": "string"
        },
        {
          "internalType": "uint256",
          "name": "_amount",
          "type": "uint256"
        }
      ],
      "name": "createItem",
      "outputs": [],
      "payable": false,
      "stateMutability": "nonpayable",
      "type": "function"
    },
    {
      "constant": false,
      "inputs": [
        {
          "internalType": "uint256",
          "name": "_serialNo",
          "type": "uint256"
        },
        {
          "internalType": "uint256",
          "name": "_amount",
          "type": "uint256"
        }
      ],
      "name": "donateItem",
      "outputs": [],
      "payable": false,
      "stateMutability": "nonpayable",
      "type": "function"
    },
    {
      "constant": false,
      "inputs": [
        {
          "internalType": "uint256",
          "name": "_donateNo",
          "type": "uint256"
        },
        {
          "internalType": "string",
          "name": "_trackingNo",
          "type": "string"
        }
      ],
      "name": "transportItem",
      "outputs": [],
      "payable": false,
      "stateMutability": "nonpayable",
      "type": "function"
    },
    {
      "constant": false,
      "inputs": [
        {
          "internalType": "uint256",
          "name": "_donateNo",
          "type": "uint256"
        }
      ],
      "name": "receiveItem",
      "outputs": [],
      "payable": false,
      "stateMutability": "nonpayable",
      "type": "function"
    },
    {
      "constant": false,
      "inputs": [
        {
          "internalType": "uint256",
          "name": "_donateNo",
          "type": "uint256"
        }
      ],
      "name": "cancelDonation",
      "outputs": [],
      "payable": false,
      "stateMutability": "nonpayable",
      "type": "function"
    },
    {
      "constant": false,
      "inputs": [
        {
          "internalType": "uint256",
          "name": "_serialNo",
          "type": "uint256"
        }
      ],
      "name": "endDonation",
      "outputs": [],
      "payable": false,
      "stateMutability": "nonpayable",
      "type": "function"
    },
    {
      "constant": true,
      "inputs": [
        {
          "internalType": "address",
          "name": "_donee",
          "type": "address"
        }
      ],
      "name": "listSerialNo",
      "outputs": [
        {
          "internalType": "uint256[]",
          "name": "",
          "type": "uint256[]"
        }
      ],
      "payable": false,
      "stateMutability": "view",
      "type": "function"
    },
    {
      "constant": true,
      "inputs": [
        {
          "internalType": "address",
          "name": "_donor",
          "type": "address"
        }
      ],
      "name": "listDonateNo",
      "outputs": [
        {
          "internalType": "uint256[]",
          "name": "",
          "type": "uint256[]"
        }
      ],
      "payable": false,
      "stateMutability": "view",
      "type": "function"
    },
    {
      "constant": true,
      "inputs": [
        {
          "internalType": "uint256",
          "name": "_serialNo",
          "type": "uint256"
        }
      ],
      "name": "doneeRecord",
      "outputs": [
        {
          "internalType": "uint256",
          "name": "serialNo",
          "type": "uint256"
        },
        {
          "internalType": "string",
          "name": "itemName",
          "type": "string"
        },
        {
          "internalType": "uint256",
          "name": "amount",
          "type": "uint256"
        },
        {
          "internalType": "uint256",
          "name": "transporting",
          "type": "uint256"
        },
        {
          "internalType": "uint256",
          "name": "received",
          "type": "uint256"
        },
        {
          "internalType": "bool",
          "name": "isAcceptable",
          "type": "bool"
        }
      ],
      "payable": false,
      "stateMutability": "view",
      "type": "function"
    },
    {
      "constant": true,
      "inputs": [
        {
          "internalType": "uint256",
          "name": "_donateNo",
          "type": "uint256"
        }
      ],
      "name": "donorRecord",
      "outputs": [
        {
          "internalType": "uint256",
          "name": "donateNo",
          "type": "uint256"
        },
        {
          "internalType": "uint256",
          "name": "serialNo",
          "type": "uint256"
        },
        {
          "internalType": "string",
          "name": "itemName",
          "type": "string"
        },
        {
          "internalType": "uint256",
          "name": "amount",
          "type": "uint256"
        },
        {
          "internalType": "uint256",
          "name": "status",
          "type": "uint256"
        }
      ],
      "payable": false,
      "stateMutability": "view",
      "type": "function"
    }
  ],
  "bytecode": "0x6080604052600060015560006002553480156200001b57600080fd5b50604051806060016040528060258152602001620047a760259139600090805190602001906200004d92919062000054565b5062000103565b828054600181600116156101000203166002900490600052602060002090601f016020900481019282601f106200009757805160ff1916838001178555620000c8565b82800160010185558215620000c8579182015b82811115620000c7578251825591602001919060010190620000aa565b5b509050620000d79190620000db565b5090565b6200010091905b80821115620000fc576000816000905550600101620000e2565b5090565b90565b61469480620001136000396000f3fe608060405234801561001057600080fd5b506004361061010b5760003560e01c80636cab712b116100a2578063a57729c211610071578063a57729c2146107b0578063bfb231d214610873578063d7c1aa2114610989578063f8626af814610a4e578063f872bec014610bb05761010b565b80636cab712b146106615780638c5517421461068f578063993c800014610754578063a26be999146107825761010b565b8063448e5378116100de578063448e5378146103ab5780634703853e146103e3578063521936e61461054557806354c6fec8146105c85761010b565b806308ddc6131461011057806318fca06b146101a95780632c22e46a146102775780632d7181b514610295575b600080fd5b6101526004803603602081101561012657600080fd5b81019080803573ffffffffffffffffffffffffffffffffffffffff169060200190929190505050610bce565b6040518080602001828103825283818151815260200191508051906020019060200280838360005b8381101561019557808201518184015260208101905061017a565b505050509050019250505060405180910390f35b6101d5600480360360208110156101bf57600080fd5b8101908080359060200190929190505050610c65565b604051808781526020018060200186815260200185815260200184815260200183151515158152602001828103825287818151815260200191508051906020019080838360005b8381101561023757808201518184015260208101905061021c565b50505050905090810190601f1680156102645780820380516001836020036101000a031916815260200191505b5097505050505050505060405180910390f35b61027f610ec8565b6040518082815260200191505060405180910390f35b6102c1600480360360208110156102ab57600080fd5b8101908080359060200190929190505050610ece565b604051808b81526020018a73ffffffffffffffffffffffffffffffffffffffff1673ffffffffffffffffffffffffffffffffffffffff1681526020018981526020018060200188815260200187815260200186815260200185815260200184815260200183151515158152602001828103825289818151815260200191508051906020019080838360005b8381101561036757808201518184015260208101905061034c565b50505050905090810190601f1680156103945780820380516001836020036101000a031916815260200191505b509b50505050505050505050505060405180910390f35b6103e1600480360360408110156103c157600080fd5b810190808035906020019092919080359060200190929190505050610ff4565b005b61040f600480360360208110156103f957600080fd5b8101908080359060200190929190505050611919565b604051808881526020018773ffffffffffffffffffffffffffffffffffffffff1673ffffffffffffffffffffffffffffffffffffffff1681526020018681526020018581526020018060200180602001848152602001838103835286818151815260200191508051906020019080838360005b8381101561049d578082015181840152602081019050610482565b50505050905090810190601f1680156104ca5780820380516001836020036101000a031916815260200191505b50838103825285818151815260200191508051906020019080838360005b838110156105035780820151818401526020810190506104e8565b50505050905090810190601f1680156105305780820380516001836020036101000a031916815260200191505b50995050505050505050505060405180910390f35b61054d611ab8565b6040518080602001828103825283818151815260200191508051906020019080838360005b8381101561058d578082015181840152602081019050610572565b50505050905090810190601f1680156105ba5780820380516001836020036101000a031916815260200191505b509250505060405180910390f35b61060a600480360360208110156105de57600080fd5b81019080803573ffffffffffffffffffffffffffffffffffffffff169060200190929190505050611b56565b6040518080602001828103825283818151815260200191508051906020019060200280838360005b8381101561064d578082015181840152602081019050610632565b505050509050019250505060405180910390f35b61068d6004803603602081101561067757600080fd5b8101908080359060200190929190505050611bed565b005b610752600480360360408110156106a557600080fd5b81019080803590602001906401000000008111156106c257600080fd5b8201836020820111156106d457600080fd5b803590602001918460018302840111640100000000831117156106f657600080fd5b91908080601f016020809104026020016040519081016040528093929190818152602001838380828437600081840152601f19601f82011690508083019250505050505050919291929080359060200190929190505050612198565b005b6107806004803603602081101561076a57600080fd5b81019080803590602001909291905050506125c6565b005b6107ae6004803603602081101561079857600080fd5b8101908080359060200190929190505050612d9b565b005b6107dc600480360360208110156107c657600080fd5b810190808035906020019092919050505061388c565b6040518086815260200185815260200180602001848152602001838152602001828103825285818151815260200191508051906020019080838360005b83811015610834578082015181840152602081019050610819565b50505050905090810190601f1680156108615780820380516001836020036101000a031916815260200191505b50965050505050505060405180910390f35b61089f6004803603602081101561088957600080fd5b8101908080359060200190929190505050613ac2565b604051808b81526020018a73ffffffffffffffffffffffffffffffffffffffff1673ffffffffffffffffffffffffffffffffffffffff1681526020018981526020018060200188815260200187815260200186815260200185815260200184815260200183151515158152602001828103825289818151815260200191508051906020019080838360005b8381101561094557808201518184015260208101905061092a565b50505050905090810190601f1680156109725780820380516001836020036101000a031916815260200191505b509b50505050505050505050505060405180910390f35b610a4c6004803603604081101561099f57600080fd5b8101908080359060200190929190803590602001906401000000008111156109c657600080fd5b8201836020820111156109d857600080fd5b803590602001918460018302840111640100000000831117156109fa57600080fd5b91908080601f016020809104026020016040519081016040528093929190818152602001838380828437600081840152601f19601f820116905080830192505050505050509192919290505050613bdb565b005b610a7a60048036036020811015610a6457600080fd5b810190808035906020019092919050505061423c565b604051808881526020018773ffffffffffffffffffffffffffffffffffffffff1673ffffffffffffffffffffffffffffffffffffffff1681526020018681526020018581526020018060200180602001848152602001838103835286818151815260200191508051906020019080838360005b83811015610b08578082015181840152602081019050610aed565b50505050905090810190601f168015610b355780820380516001836020036101000a031916815260200191505b50838103825285818151815260200191508051906020019080838360005b83811015610b6e578082015181840152602081019050610b53565b50505050905090810190601f168015610b9b5780820380516001836020036101000a031916815260200191505b50995050505050505050505060405180910390f35b610bb86143ce565b6040518082815260200191505060405180910390f35b6060600660008373ffffffffffffffffffffffffffffffffffffffff1673ffffffffffffffffffffffffffffffffffffffff168152602001908152602001600020805480602002602001604051908101604052809291908181526020018280548015610c5957602002820191906000526020600020905b815481526020019060010190808311610c45575b50505050509050919050565b60006060600080600080600087118015610c8157506001548711155b610cf3576040517f08c379a000000000000000000000000000000000000000000000000000000000815260040180806020018281038252601a8152602001807f4974656d2073686f756c6420626520696e20646f6e6174696f6e00000000000081525060200191505060405180910390fd5b6060600080600080600360008d8152602001908152602001600020600001548c14610d86576040517f08c379a00000000000000000000000000000000000000000000000000000000081526004018080602001828103825260118152602001807f4974656d20736e206e6f74206d6174636800000000000000000000000000000081525060200191505060405180910390fd5b600360008d81526020019081526020016000206003018054600181600116156101000203166002900480601f016020809104026020016040519081016040528092919081815260200182805460018160011615610100020316600290048015610e305780601f10610e0557610100808354040283529160200191610e30565b820191906000526020600020905b815481529060010190602001808311610e1357829003601f168201915b50505050509450600360008d8152602001908152602001600020600501549350600360008d8152602001908152602001600020600701549250600360008d8152602001908152602001600020600801549150600360008d815260200190815260200160002060090160009054906101000a900460ff1690508b85858585859a509a509a509a509a509a50505050505091939550919395565b60025481565b60078181548110610edb57fe5b90600052602060002090600a02016000915090508060000154908060010160009054906101000a900473ffffffffffffffffffffffffffffffffffffffff1690806002015490806003018054600181600116156101000203166002900480601f016020809104026020016040519081016040528092919081815260200182805460018160011615610100020316600290048015610fb95780601f10610f8e57610100808354040283529160200191610fb9565b820191906000526020600020905b815481529060010190602001808311610f9c57829003601f168201915b5050505050908060040154908060050154908060060154908060070154908060080154908060090160009054906101000a900460ff1690508a565b610ffc6143d4565b6003600084815260200190815260200160002060405180610140016040529081600082015481526020016001820160009054906101000a900473ffffffffffffffffffffffffffffffffffffffff1673ffffffffffffffffffffffffffffffffffffffff1673ffffffffffffffffffffffffffffffffffffffff16815260200160028201548152602001600382018054600181600116156101000203166002900480601f01602080910402602001604051908101604052809291908181526020018280546001816001161561010002031660029004801561111e5780601f106110f35761010080835404028352916020019161111e565b820191906000526020600020905b81548152906001019060200180831161110157829003601f168201915b5050505050815260200160048201548152602001600582015481526020016006820154815260200160078201548152602001600882015481526020016009820160009054906101000a900460ff1615151515815250509050600081600001511180156111905750600154816000015111155b611202576040517f08c379a000000000000000000000000000000000000000000000000000000000815260040180806020018281038252601a8152602001807f4974656d2073686f756c6420626520696e20646f6e6174696f6e00000000000081525060200191505060405180910390fd5b60008211611278576040517f08c379a00000000000000000000000000000000000000000000000000000000081526004018080602001828103825260198152602001807f4974656d277320616d6f756e742069732072657175697265640000000000000081525060200191505060405180910390fd5b8060a001518160c001518261010001518360e00151010110611302576040517f08c379a000000000000000000000000000000000000000000000000000000000815260040180806020018281038252601a8152602001807f4974656d20697320656e6f7567682074656d706f726172696c7900000000000081525060200191505060405180910390fd5b80610120015161137a576040517f08c379a00000000000000000000000000000000000000000000000000000000081526004018080602001828103825260148152602001807f5468697320646f6e6174696f6e20697320656e6400000000000000000000000081525060200191505060405180910390fd5b806020015173ffffffffffffffffffffffffffffffffffffffff163373ffffffffffffffffffffffffffffffffffffffff161415611403576040517f08c379a000000000000000000000000000000000000000000000000000000000815260040180806020018281038252602181526020018061463f6021913960400191505060405180910390fd5b60026000815480929190600101919050555061141d61443f565b60025481600001818152505033816020019073ffffffffffffffffffffffffffffffffffffffff16908173ffffffffffffffffffffffffffffffffffffffff168152505083816040018181525050828260c001518361010001518460e001518560a00151030303111561149957828160600181815250506114bb565b8160c001518261010001518360e001518460a001510303038160600181815250505b81606001518160800181905250604051806020016040528060008152508160a0018190525060008160c0018181525050806005600060025481526020019081526020016000206000820151816000015560208201518160010160006101000a81548173ffffffffffffffffffffffffffffffffffffffff021916908373ffffffffffffffffffffffffffffffffffffffff16021790555060408201518160020155606082015181600301556080820151816004019080519060200190611582929190614492565b5060a082015181600501908051906020019061159f929190614492565b5060c08201518160060155905050600660003373ffffffffffffffffffffffffffffffffffffffff1673ffffffffffffffffffffffffffffffffffffffff168152602001908152602001600020600254908060018154018082558091505090600182039060005260206000200160009091929091909150555080606001516003600086815260200190815260200160002060060160008282540192505081905550806060015160036000868152602001908152602001600020600501600082825403925050819055507f557e4d11a484fc8bfafe8313f922e181f55d42a161dcf7f4f31e6a3cd70fb24682600001518360200151846040015185606001518660a001518760c001518860e001518961010001518a6101200151604051808a81526020018973ffffffffffffffffffffffffffffffffffffffff1673ffffffffffffffffffffffffffffffffffffffff1681526020018881526020018060200187815260200186815260200185815260200184815260200183151515158152602001828103825288818151815260200191508051906020019080838360005b8381101561175857808201518184015260208101905061173d565b50505050905090810190601f1680156117855780820380516001836020036101000a031916815260200191505b509a505050505050505050505060405180910390a17fb164ee32678f041dd5ccafb0425dd571f6a65fad1ec5329fb50b29a7eb152c2f816000015182602001518360400151846060015185608001518660a001518760c00151604051808881526020018773ffffffffffffffffffffffffffffffffffffffff1673ffffffffffffffffffffffffffffffffffffffff1681526020018681526020018581526020018060200180602001848152602001838103835286818151815260200191508051906020019080838360005b8381101561186c578082015181840152602081019050611851565b50505050905090810190601f1680156118995780820380516001836020036101000a031916815260200191505b50838103825285818151815260200191508051906020019080838360005b838110156118d25780820151818401526020810190506118b7565b50505050905090810190601f1680156118ff5780820380516001836020036101000a031916815260200191505b50995050505050505050505060405180910390a150505050565b6008818154811061192657fe5b90600052602060002090600702016000915090508060000154908060010160009054906101000a900473ffffffffffffffffffffffffffffffffffffffff1690806002015490806003015490806004018054600181600116156101000203166002900480601f016020809104026020016040519081016040528092919081815260200182805460018160011615610100020316600290048015611a0a5780601f106119df57610100808354040283529160200191611a0a565b820191906000526020600020905b8154815290600101906020018083116119ed57829003601f168201915b505050505090806005018054600181600116156101000203166002900480601f016020809104026020016040519081016040528092919081815260200182805460018160011615610100020316600290048015611aa85780601f10611a7d57610100808354040283529160200191611aa8565b820191906000526020600020905b815481529060010190602001808311611a8b57829003601f168201915b5050505050908060060154905087565b60008054600181600116156101000203166002900480601f016020809104026020016040519081016040528092919081815260200182805460018160011615610100020316600290048015611b4e5780601f10611b2357610100808354040283529160200191611b4e565b820191906000526020600020905b815481529060010190602001808311611b3157829003601f168201915b505050505081565b6060600460008373ffffffffffffffffffffffffffffffffffffffff1673ffffffffffffffffffffffffffffffffffffffff168152602001908152602001600020805480602002602001604051908101604052809291908181526020018280548015611be157602002820191906000526020600020905b815481526020019060010190808311611bcd575b50505050509050919050565b611bf56143d4565b6003600083815260200190815260200160002060405180610140016040529081600082015481526020016001820160009054906101000a900473ffffffffffffffffffffffffffffffffffffffff1673ffffffffffffffffffffffffffffffffffffffff1673ffffffffffffffffffffffffffffffffffffffff16815260200160028201548152602001600382018054600181600116156101000203166002900480601f016020809104026020016040519081016040528092919081815260200182805460018160011615610100020316600290048015611d175780601f10611cec57610100808354040283529160200191611d17565b820191906000526020600020905b815481529060010190602001808311611cfa57829003601f168201915b5050505050815260200160048201548152602001600582015481526020016006820154815260200160078201548152602001600882015481526020016009820160009054906101000a900460ff161515151581525050905060008160000151118015611d895750600154816000015111155b611dfb576040517f08c379a000000000000000000000000000000000000000000000000000000000815260040180806020018281038252601a8152602001807f4974656d2073686f756c6420626520696e20646f6e6174696f6e00000000000081525060200191505060405180910390fd5b806101200151611e73576040517f08c379a00000000000000000000000000000000000000000000000000000000081526004018080602001828103825260148152602001807f5468697320646f6e6174696f6e20697320656e6400000000000000000000000081525060200191505060405180910390fd5b6003600083815260200190815260200160002060010160009054906101000a900473ffffffffffffffffffffffffffffffffffffffff1673ffffffffffffffffffffffffffffffffffffffff163373ffffffffffffffffffffffffffffffffffffffff1614611f4a576040517f08c379a000000000000000000000000000000000000000000000000000000000815260040180806020018281038252601c8152602001807f6f6e6c7920656e6420646f6e6174696f6e206279206f6e6573656c660000000081525060200191505060405180910390fd5b60006003600084815260200190815260200160002060090160006101000a81548160ff0219169083151502179055507f557e4d11a484fc8bfafe8313f922e181f55d42a161dcf7f4f31e6a3cd70fb24660036000848152602001908152602001600020600001546003600085815260200190815260200160002060010160009054906101000a900473ffffffffffffffffffffffffffffffffffffffff1660036000868152602001908152602001600020600201546003600087815260200190815260200160002060030160036000888152602001908152602001600020600501546003600089815260200190815260200160002060060154600360008a815260200190815260200160002060070154600360008b815260200190815260200160002060080154600360008c815260200190815260200160002060090160009054906101000a900460ff16604051808a81526020018973ffffffffffffffffffffffffffffffffffffffff1673ffffffffffffffffffffffffffffffffffffffff168152602001888152602001806020018781526020018681526020018581526020018481526020018315151515815260200182810382528881815460018160011615610100020316600290048152602001915080546001816001161561010002031660029004801561217e5780601f106121535761010080835404028352916020019161217e565b820191906000526020600020905b81548152906001019060200180831161216157829003601f168201915b50509a505050505050505050505060405180910390a15050565b600082511161220f576040517f08c379a00000000000000000000000000000000000000000000000000000000081526004018080602001828103825260178152602001807f4974656d2773206e616d6520697320726571756972656400000000000000000081525060200191505060405180910390fd5b60008111612285576040517f08c379a00000000000000000000000000000000000000000000000000000000081526004018080602001828103825260198152602001807f4974656d277320616d6f756e742069732072657175697265640000000000000081525060200191505060405180910390fd5b60016000815480929190600101919050555061229f6143d4565b60015481600001818152505033816020019073ffffffffffffffffffffffffffffffffffffffff16908173ffffffffffffffffffffffffffffffffffffffff1681525050600081604001818152505082816060018190525081816080018181525050818160a001818152505060008160e001818152505060008161010001818152505060008160c0018181525050600181610120019015159081151581525050806003600060015481526020019081526020016000206000820151816000015560208201518160010160006101000a81548173ffffffffffffffffffffffffffffffffffffffff021916908373ffffffffffffffffffffffffffffffffffffffff1602179055506040820151816002015560608201518160030190805190602001906123cc929190614492565b506080820151816004015560a0820151816005015560c0820151816006015560e0820151816007015561010082015181600801556101208201518160090160006101000a81548160ff021916908315150217905550905050600460003373ffffffffffffffffffffffffffffffffffffffff1673ffffffffffffffffffffffffffffffffffffffff16815260200190815260200160002060015490806001815401808255809150509060018203906000526020600020016000909192909190915055507f557e4d11a484fc8bfafe8313f922e181f55d42a161dcf7f4f31e6a3cd70fb24681600001518260200151836040015184606001518560a001518660c001518760e00151886101000151896101200151604051808a81526020018973ffffffffffffffffffffffffffffffffffffffff1673ffffffffffffffffffffffffffffffffffffffff1681526020018881526020018060200187815260200186815260200185815260200184815260200183151515158152602001828103825288818151815260200191508051906020019080838360005b8381101561257f578082015181840152602081019050612564565b50505050905090810190601f1680156125ac5780820380516001836020036101000a031916815260200191505b509a505050505050505050505060405180910390a1505050565b6000811180156125d857506002548111155b61264a576040517f08c379a00000000000000000000000000000000000000000000000000000000081526004018080602001828103825260128152602001807f646f6e6174696f6e206e6f74206578736974000000000000000000000000000081525060200191505060405180910390fd5b60006005600083815260200190815260200160002060060154146126d6576040517f08c379a000000000000000000000000000000000000000000000000000000000815260040180806020018281038252601d8152602001807f6974656d2063616e6e6f742063616e63656c206966207368697070656400000081525060200191505060405180910390fd5b60006005600083815260200190815260200160002060020154905060008111801561270357506001548111155b612775576040517f08c379a000000000000000000000000000000000000000000000000000000000815260040180806020018281038252601a8152602001807f4974656d2073686f756c6420626520696e20646f6e6174696f6e00000000000081525060200191505060405180910390fd5b80600360008381526020019081526020016000206000015414612800576040517f08c379a00000000000000000000000000000000000000000000000000000000081526004018080602001828103825260128152602001807f73657269616c4e6f206e6f74206d61746368000000000000000000000000000081525060200191505060405180910390fd5b6005600083815260200190815260200160002060010160009054906101000a900473ffffffffffffffffffffffffffffffffffffffff1673ffffffffffffffffffffffffffffffffffffffff163373ffffffffffffffffffffffffffffffffffffffff16146128d7576040517f08c379a000000000000000000000000000000000000000000000000000000000815260040180806020018281038252601e8152602001807f73686f756c642062652063616e63656c6c6564206279206f6e6573656c66000081525060200191505060405180910390fd5b60046005600084815260200190815260200160002060060181905550600560008381526020019081526020016000206003015460036000838152602001908152602001600020600601600082825403925050819055507fb164ee32678f041dd5ccafb0425dd571f6a65fad1ec5329fb50b29a7eb152c2f60056000848152602001908152602001600020600001546005600085815260200190815260200160002060010160009054906101000a900473ffffffffffffffffffffffffffffffffffffffff16600560008681526020019081526020016000206002015460056000878152602001908152602001600020600301546005600088815260200190815260200160002060040160056000898152602001908152602001600020600501600560008a815260200190815260200160002060060154604051808881526020018773ffffffffffffffffffffffffffffffffffffffff1673ffffffffffffffffffffffffffffffffffffffff1681526020018681526020018581526020018060200180602001848152602001838103835286818154600181600116156101000203166002900481526020019150805460018160011615610100020316600290048015612ae45780601f10612ab957610100808354040283529160200191612ae4565b820191906000526020600020905b815481529060010190602001808311612ac757829003601f168201915b5050838103825285818154600181600116156101000203166002900481526020019150805460018160011615610100020316600290048015612b675780601f10612b3c57610100808354040283529160200191612b67565b820191906000526020600020905b815481529060010190602001808311612b4a57829003601f168201915b5050995050505050505050505060405180910390a17f557e4d11a484fc8bfafe8313f922e181f55d42a161dcf7f4f31e6a3cd70fb24660036000838152602001908152602001600020600001546003600084815260200190815260200160002060010160009054906101000a900473ffffffffffffffffffffffffffffffffffffffff16600360008581526020019081526020016000206002015460036000868152602001908152602001600020600301600360008781526020019081526020016000206005015460036000888152602001908152602001600020600601546003600089815260200190815260200160002060070154600360008a815260200190815260200160002060080154600360008b815260200190815260200160002060090160009054906101000a900460ff16604051808a81526020018973ffffffffffffffffffffffffffffffffffffffff1673ffffffffffffffffffffffffffffffffffffffff1681526020018881526020018060200187815260200186815260200185815260200184815260200183151515158152602001828103825288818154600181600116156101000203166002900481526020019150805460018160011615610100020316600290048015612d815780601f10612d5657610100808354040283529160200191612d81565b820191906000526020600020905b815481529060010190602001808311612d6457829003601f168201915b50509a505050505050505050505060405180910390a15050565b600081118015612dad57506002548111155b612e1f576040517f08c379a00000000000000000000000000000000000000000000000000000000081526004018080602001828103825260128152602001807f646f6e6174696f6e206e6f74206578736974000000000000000000000000000081525060200191505060405180910390fd5b6001600560008381526020019081526020016000206006015414612eab576040517f08c379a000000000000000000000000000000000000000000000000000000000815260040180806020018281038252601c8152602001807f6974656d2073686f756c64206265656e207472616e706f7274696e670000000081525060200191505060405180910390fd5b600060056000838152602001908152602001600020600201549050600081118015612ed857506001548111155b612f4a576040517f08c379a000000000000000000000000000000000000000000000000000000000815260040180806020018281038252601a8152602001807f4974656d2073686f756c6420626520696e20646f6e6174696f6e00000000000081525060200191505060405180910390fd5b80600360008381526020019081526020016000206000015414612fd5576040517f08c379a00000000000000000000000000000000000000000000000000000000081526004018080602001828103825260128152602001807f73657269616c4e6f206e6f74206d61746368000000000000000000000000000081525060200191505060405180910390fd5b6003600082815260200190815260200160002060010160009054906101000a900473ffffffffffffffffffffffffffffffffffffffff1673ffffffffffffffffffffffffffffffffffffffff163373ffffffffffffffffffffffffffffffffffffffff16146130ac576040517f08c379a00000000000000000000000000000000000000000000000000000000081526004018080602001828103825260198152602001807f73686f756c64206265207369676e656420627920646f6e65650000000000000081525060200191505060405180910390fd5b60026005600084815260200190815260200160002060060181905550600560008381526020019081526020016000206003015460036000838152602001908152602001600020600701600082825403925050819055506005600083815260200190815260200160002060030154600360008381526020019081526020016000206008016000828254019250508190555060036000828152602001908152602001600020600401546003600083815260200190815260200160002060070154600360008481526020019081526020016000206008015401106131b75760006003600083815260200190815260200160002060090160006101000a81548160ff0219169083151502179055505b7fb164ee32678f041dd5ccafb0425dd571f6a65fad1ec5329fb50b29a7eb152c2f60056000848152602001908152602001600020600001546005600085815260200190815260200160002060010160009054906101000a900473ffffffffffffffffffffffffffffffffffffffff16600560008681526020019081526020016000206002015460056000878152602001908152602001600020600301546005600088815260200190815260200160002060040160056000898152602001908152602001600020600501600560008a815260200190815260200160002060060154604051808881526020018773ffffffffffffffffffffffffffffffffffffffff1673ffffffffffffffffffffffffffffffffffffffff168152602001868152602001858152602001806020018060200184815260200183810383528681815460018160011615610100020316600290048152602001915080546001816001161561010002031660029004801561336e5780601f106133435761010080835404028352916020019161336e565b820191906000526020600020905b81548152906001019060200180831161335157829003601f168201915b50508381038252858181546001816001161561010002031660029004815260200191508054600181600116156101000203166002900480156133f15780601f106133c6576101008083540402835291602001916133f1565b820191906000526020600020905b8154815290600101906020018083116133d457829003601f168201915b5050995050505050505050505060405180910390a17f557e4d11a484fc8bfafe8313f922e181f55d42a161dcf7f4f31e6a3cd70fb24660036000838152602001908152602001600020600001546003600084815260200190815260200160002060010160009054906101000a900473ffffffffffffffffffffffffffffffffffffffff16600360008581526020019081526020016000206002015460036000868152602001908152602001600020600301600360008781526020019081526020016000206005015460036000888152602001908152602001600020600601546003600089815260200190815260200160002060070154600360008a815260200190815260200160002060080154600360008b815260200190815260200160002060090160009054906101000a900460ff16604051808a81526020018973ffffffffffffffffffffffffffffffffffffffff1673ffffffffffffffffffffffffffffffffffffffff168152602001888152602001806020018781526020018681526020018581526020018481526020018315151515815260200182810382528881815460018160011615610100020316600290048152602001915080546001816001161561010002031660029004801561360b5780601f106135e05761010080835404028352916020019161360b565b820191906000526020600020905b8154815290600101906020018083116135ee57829003601f168201915b50509a505050505050505050505060405180910390a16007600360008381526020019081526020016000209080600181540180825580915050906001820390600052602060002090600a020160009091929091909150600082015481600001556001820160009054906101000a900473ffffffffffffffffffffffffffffffffffffffff168160010160006101000a81548173ffffffffffffffffffffffffffffffffffffffff021916908373ffffffffffffffffffffffffffffffffffffffff1602179055506002820154816002015560038201816003019080546001816001161561010002031660029004613703929190614512565b5060048201548160040155600582015481600501556006820154816006015560078201548160070155600882015481600801556009820160009054906101000a900460ff168160090160006101000a81548160ff02191690831515021790555050505060086005600084815260200190815260200160002090806001815401808255809150509060018203906000526020600020906007020160009091929091909150600082015481600001556001820160009054906101000a900473ffffffffffffffffffffffffffffffffffffffff168160010160006101000a81548173ffffffffffffffffffffffffffffffffffffffff021916908373ffffffffffffffffffffffffffffffffffffffff160217905550600282015481600201556003820154816003015560048201816004019080546001816001161561010002031660029004613852929190614512565b506005820181600501908054600181600116156101000203166002900461387a929190614512565b50600682015481600601555050505050565b60008060606000806000861180156138a657506002548611155b613918576040517f08c379a00000000000000000000000000000000000000000000000000000000081526004018080602001828103825260198152602001807f646f6e6174696f6e206e756d206f7574206f662072616e67650000000000000081525060200191505060405180910390fd5b60006060600080600560008b8152602001908152602001600020600001548a146139aa576040517f08c379a00000000000000000000000000000000000000000000000000000000081526004018080602001828103825260158152602001807f646f6e6174696f6e20736e206e6f74206d61746368000000000000000000000081525060200191505060405180910390fd5b600560008b8152602001908152602001600020600201549350600560008b81526020019081526020016000206004018054600181600116156101000203166002900480601f016020809104026020016040519081016040528092919081815260200182805460018160011615610100020316600290048015613a6d5780601f10613a4257610100808354040283529160200191613a6d565b820191906000526020600020905b815481529060010190602001808311613a5057829003601f168201915b50505050509250600560008b8152602001908152602001600020600301549150600560008b81526020019081526020016000206006015490508984848484985098509850985098505050505091939590929450565b60036020528060005260406000206000915090508060000154908060010160009054906101000a900473ffffffffffffffffffffffffffffffffffffffff1690806002015490806003018054600181600116156101000203166002900480601f016020809104026020016040519081016040528092919081815260200182805460018160011615610100020316600290048015613ba05780601f10613b7557610100808354040283529160200191613ba0565b820191906000526020600020905b815481529060010190602001808311613b8357829003601f168201915b5050505050908060040154908060050154908060060154908060070154908060080154908060090160009054906101000a900460ff1690508a565b600082118015613bed57506002548211155b613c5f576040517f08c379a00000000000000000000000000000000000000000000000000000000081526004018080602001828103825260128152602001807f646f6e6174696f6e206e6f74206578736974000000000000000000000000000081525060200191505060405180910390fd5b6000600560008481526020019081526020016000206006015414613ceb576040517f08c379a00000000000000000000000000000000000000000000000000000000081526004018080602001828103825260188152602001807f6974656d2073686f756c64206265656e20636f6e6669726d000000000000000081525060200191505060405180910390fd5b600060056000848152602001908152602001600020600201549050600081118015613d1857506001548111155b613d8a576040517f08c379a000000000000000000000000000000000000000000000000000000000815260040180806020018281038252601a8152602001807f4974656d2073686f756c6420626520696e20646f6e6174696f6e00000000000081525060200191505060405180910390fd5b80600360008381526020019081526020016000206000015414613e15576040517f08c379a00000000000000000000000000000000000000000000000000000000081526004018080602001828103825260128152602001807f73657269616c4e6f206e6f74206d61746368000000000000000000000000000081525060200191505060405180910390fd5b6005600084815260200190815260200160002060010160009054906101000a900473ffffffffffffffffffffffffffffffffffffffff1673ffffffffffffffffffffffffffffffffffffffff163373ffffffffffffffffffffffffffffffffffffffff1614613eec576040517f08c379a00000000000000000000000000000000000000000000000000000000081526004018080602001828103825260198152602001807f73686f756c64206265207369676e656420627920646f6e65650000000000000081525060200191505060405180910390fd5b6001600560008581526020019081526020016000206006018190555081600560008581526020019081526020016000206005019080519060200190613f32929190614599565b50600560008481526020019081526020016000206003015460036000838152602001908152602001600020600701600082825401925050819055506003600082815260200190815260200160002060040154600360008381526020019081526020016000206007015460036000848152602001908152602001600020600801540110613fe85760006003600083815260200190815260200160002060090160006101000a81548160ff0219169083151502179055505b7fb164ee32678f041dd5ccafb0425dd571f6a65fad1ec5329fb50b29a7eb152c2f60056000858152602001908152602001600020600001546005600086815260200190815260200160002060010160009054906101000a900473ffffffffffffffffffffffffffffffffffffffff166005600087815260200190815260200160002060020154600560008881526020019081526020016000206003015460056000898152602001908152602001600020600401600560008a8152602001908152602001600020600501600560008b815260200190815260200160002060060154604051808881526020018773ffffffffffffffffffffffffffffffffffffffff1673ffffffffffffffffffffffffffffffffffffffff168152602001868152602001858152602001806020018060200184815260200183810383528681815460018160011615610100020316600290048152602001915080546001816001161561010002031660029004801561419f5780601f106141745761010080835404028352916020019161419f565b820191906000526020600020905b81548152906001019060200180831161418257829003601f168201915b50508381038252858181546001816001161561010002031660029004815260200191508054600181600116156101000203166002900480156142225780601f106141f757610100808354040283529160200191614222565b820191906000526020600020905b81548152906001019060200180831161420557829003601f168201915b5050995050505050505050505060405180910390a1505050565b60056020528060005260406000206000915090508060000154908060010160009054906101000a900473ffffffffffffffffffffffffffffffffffffffff1690806002015490806003015490806004018054600181600116156101000203166002900480601f0160208091040260200160405190810160405280929190818152602001828054600181600116156101000203166002900480156143205780601f106142f557610100808354040283529160200191614320565b820191906000526020600020905b81548152906001019060200180831161430357829003601f168201915b505050505090806005018054600181600116156101000203166002900480601f0160208091040260200160405190810160405280929190818152602001828054600181600116156101000203166002900480156143be5780601f10614393576101008083540402835291602001916143be565b820191906000526020600020905b8154815290600101906020018083116143a157829003601f168201915b5050505050908060060154905087565b60015481565b60405180610140016040528060008152602001600073ffffffffffffffffffffffffffffffffffffffff168152602001600081526020016060815260200160008152602001600081526020016000815260200160008152602001600081526020016000151581525090565b6040518060e0016040528060008152602001600073ffffffffffffffffffffffffffffffffffffffff16815260200160008152602001600081526020016060815260200160608152602001600081525090565b828054600181600116156101000203166002900490600052602060002090601f016020900481019282601f106144d357805160ff1916838001178555614501565b82800160010185558215614501579182015b828111156145005782518255916020019190600101906144e5565b5b50905061450e9190614619565b5090565b828054600181600116156101000203166002900490600052602060002090601f016020900481019282601f1061454b5780548555614588565b8280016001018555821561458857600052602060002091601f016020900482015b8281111561458757825482559160010191906001019061456c565b5b5090506145959190614619565b5090565b828054600181600116156101000203166002900490600052602060002090601f016020900481019282601f106145da57805160ff1916838001178555614608565b82800160010185558215614608579182015b828111156146075782518255916020019190600101906145ec565b5b5090506146159190614619565b5090565b61463b91905b8082111561463757600081600090555060010161461f565b5090565b9056fe63616e6e6f7420646f6e61746520746f207468652073616d652061646472657373a265627a7a72315820536c12a20760cf25cd2e9e9773451118bf6989ff88e853226fa0d2b7c876bf5364736f6c63430005100032456d657267656e6379205265736f757263657320446f6e6174696f6e20506c6174666f726d",
  "source": "pragma solidity ^0.5.16;\r\n\r\ncontract EthDonation {\r\n    string public storeName;\r\n    uint public sn = 0;\r\n    uint public dn = 0;\r\n    struct Item {\r\n        uint serialNo;\r\n        address donee;\r\n        uint itemId;\r\n        string itemName;\r\n        uint initialRequired;\r\n        uint amount;\r\n        uint claimed;\r\n        uint transporting;\r\n        uint received;\r\n        bool isAcceptable;\r\n    }\r\n    struct Donation {\r\n        uint donateNo;\r\n        address donor;\r\n        uint serialNo;\r\n        uint amount;\r\n        string itemName;\r\n        string trackingNo;\r\n        uint status;    // 0--claimed, 1--transporting, 2--received, 3--overtime cancel due, 4--donor cancel\r\n    }\r\n    \r\n    mapping(uint => Item) public items;\r\n    mapping(address => uint[]) private donees;\r\n    mapping(uint => Donation) public donations;\r\n    mapping(address => uint[]) private donors;\r\n    \r\n\r\n    Item[] public itemRecord;\r\n    Donation[] public donationRecord;\r\n\r\n\r\n    event updateItem(\r\n        uint serialNo,\r\n        address donee,\r\n        uint itemId,\r\n        string itemName,\r\n        uint amount,\r\n        uint claimed,\r\n        uint transporting,\r\n        uint received,\r\n        bool isAcceptable\r\n    );\r\n        \r\n    event updateDonation(\r\n        uint donateNo,\r\n        address donor,\r\n        uint serialNo,\r\n        uint amount,\r\n        string itemName,\r\n        string trackingNo,\r\n        uint status\r\n    );\r\n\r\n    constructor() public {\r\n        storeName = \"Emergency Resources Donation Platform\";\r\n    }\r\n\r\n\r\n\r\n    function createItem(string memory _itemName, uint _amount) public {\r\n        require(bytes(_itemName).length > 0, \"Item's name is required\");\r\n        require(_amount > 0, \"Item's amount is required\");\r\n        sn++;\r\n        Item memory _item;\r\n        _item.serialNo = sn;\r\n        _item.donee = msg.sender;\r\n        _item.itemId = 0;\r\n        _item.itemName = _itemName;\r\n        _item.initialRequired = _amount;\r\n        _item.amount = _amount;\r\n        _item.transporting = 0;\r\n        _item.received = 0;\r\n        _item.claimed = 0;\r\n        _item.isAcceptable = true;\r\n        items[sn] = _item;\r\n        \r\n        donees[msg.sender].push(sn);\r\n        \r\n        emit updateItem(\r\n            _item.serialNo,\r\n            _item.donee,\r\n            _item.itemId,\r\n            _item.itemName,\r\n            _item.amount,\r\n            _item.claimed,\r\n            _item.transporting,\r\n            _item.received,\r\n            _item.isAcceptable\r\n        );\r\n    }\r\n\r\n    function donateItem(uint _serialNo,  uint _amount) public {\r\n        Item memory _item = items[_serialNo];\r\n        require(_item.serialNo > 0 && _item.serialNo <= sn, 'Item should be in donation');\r\n        require(_amount > 0, \"Item's amount is required\");\r\n        require(_item.transporting + _item.received +_item.claimed< _item.amount, 'Item is enough temporarily');\r\n        require(_item.isAcceptable, 'This donation is end');\r\n        require(msg.sender != _item.donee, 'cannot donate to the same address');\r\n        dn++;\r\n        Donation memory _donation;\r\n        _donation.donateNo = dn;\r\n        _donation.donor = msg.sender;\r\n        _donation.serialNo = _serialNo;\r\n        \r\n        if(_item.amount - _item.transporting - _item.received - _item.claimed>  _amount) _donation.amount = _amount;\r\n        else _donation.amount = _item.amount - _item.transporting - _item.received-_item.claimed;\r\n        _donation.itemName = _item.itemName;\r\n        _donation.trackingNo = '';\r\n        _donation.status = 0;\r\n        donations[dn] = _donation;\r\n        \r\n        donors[msg.sender].push(dn);\r\n\r\n        items[_serialNo].claimed += _donation.amount;\r\n        items[_serialNo].amount -= _donation.amount;\r\n\r\n        //Trigger an event\r\n        emit updateItem(\r\n            _item.serialNo,\r\n            _item.donee,\r\n            _item.itemId,\r\n            _item.itemName,\r\n            _item.amount,\r\n            _item.claimed,\r\n            _item.transporting,\r\n            _item.received,\r\n            _item.isAcceptable\r\n        );\r\n\r\n        emit updateDonation(\r\n            _donation.donateNo,\r\n            _donation.donor,\r\n            _donation.serialNo,\r\n            _donation.amount,\r\n            _donation.itemName,\r\n            _donation.trackingNo,\r\n            _donation.status\r\n        );\r\n\r\n    }\r\n    \r\n    function transportItem(uint _donateNo, string memory _trackingNo) public {\r\n        require(_donateNo > 0 && _donateNo <= dn, 'donation not exsit');\r\n        require(donations[_donateNo].status == 0, 'item should been confirm');\r\n        uint _serialNo = donations[_donateNo].serialNo;\r\n        \r\n        require(_serialNo > 0 && _serialNo <= sn, 'Item should be in donation');\r\n        require(items[_serialNo].serialNo == _serialNo, 'serialNo not match');\r\n        require(msg.sender == donations[_donateNo].donor, 'should be signed by donee');\r\n\r\n        donations[_donateNo].status = 1;\r\n        donations[_donateNo].trackingNo = _trackingNo;\r\n        items[_serialNo].transporting += donations[_donateNo].amount;\r\n        if(items[_serialNo].received+ items[_serialNo].transporting >= items[_serialNo].initialRequired) items[_serialNo].isAcceptable = false;\r\n        //Trigger an event\r\n        emit updateDonation(\r\n            donations[_donateNo].donateNo,\r\n            donations[_donateNo].donor,\r\n            donations[_donateNo].serialNo,\r\n            donations[_donateNo].amount,\r\n            donations[_donateNo].itemName,\r\n            donations[_donateNo].trackingNo,\r\n            donations[_donateNo].status\r\n        );\r\n    }\r\n\r\n    function receiveItem(uint _donateNo) public {\r\n        require(_donateNo > 0 && _donateNo <= dn, 'donation not exsit');\r\n        require(donations[_donateNo].status == 1, 'item should been tranporting');\r\n        uint _serialNo = donations[_donateNo].serialNo;\r\n        \r\n        require(_serialNo > 0 && _serialNo <= sn, 'Item should be in donation');\r\n        require(items[_serialNo].serialNo == _serialNo, 'serialNo not match');\r\n        require(msg.sender == items[_serialNo].donee, 'should be signed by donee');\r\n\r\n        donations[_donateNo].status = 2;\r\n        items[_serialNo].transporting -= donations[_donateNo].amount;\r\n        items[_serialNo].received += donations[_donateNo].amount;\r\n        if(items[_serialNo].received+ items[_serialNo].transporting >= items[_serialNo].initialRequired) items[_serialNo].isAcceptable = false;\r\n        //Trigger an event\r\n        emit updateDonation(\r\n            donations[_donateNo].donateNo,\r\n            donations[_donateNo].donor,\r\n            donations[_donateNo].serialNo,\r\n            donations[_donateNo].amount,\r\n            donations[_donateNo].itemName,\r\n            donations[_donateNo].trackingNo,\r\n            donations[_donateNo].status\r\n        );\r\n\r\n        emit updateItem(\r\n            items[_serialNo].serialNo,\r\n            items[_serialNo].donee,\r\n            items[_serialNo].itemId,\r\n            items[_serialNo].itemName,\r\n            items[_serialNo].amount,\r\n            items[_serialNo].claimed,\r\n            items[_serialNo].transporting,\r\n            items[_serialNo].received,\r\n            items[_serialNo].isAcceptable\r\n        );\r\n\r\n        itemRecord.push(items[_serialNo]);\r\n        donationRecord.push(donations[_donateNo]);\r\n\r\n\r\n    }\r\n\r\n    function cancelDonation(uint _donateNo) public {\r\n        require(_donateNo > 0 && _donateNo <= dn, 'donation not exsit');\r\n        require(donations[_donateNo].status == 0, 'item cannot cancel if shipped');\r\n        uint _serialNo = donations[_donateNo].serialNo;\r\n        \r\n        require(_serialNo > 0 && _serialNo <= sn, 'Item should be in donation');\r\n        require(items[_serialNo].serialNo == _serialNo, 'serialNo not match');\r\n        require(msg.sender == donations[_donateNo].donor, 'should be cancelled by oneself');\r\n\r\n        donations[_donateNo].status = 4;\r\n        items[_serialNo].claimed -= donations[_donateNo].amount;\r\n    \r\n        \r\n        //Trigger an event\r\n        emit updateDonation(\r\n            donations[_donateNo].donateNo,\r\n            donations[_donateNo].donor,\r\n            donations[_donateNo].serialNo,\r\n            donations[_donateNo].amount,\r\n            donations[_donateNo].itemName,\r\n            donations[_donateNo].trackingNo,\r\n            donations[_donateNo].status\r\n        );\r\n        emit updateItem(\r\n            items[_serialNo].serialNo,\r\n            items[_serialNo].donee,\r\n            items[_serialNo].itemId,\r\n            items[_serialNo].itemName,\r\n            items[_serialNo].amount,\r\n            items[_serialNo].claimed,\r\n            items[_serialNo].transporting,\r\n            items[_serialNo].received,\r\n            items[_serialNo].isAcceptable\r\n        );\r\n\r\n    }\r\n    \r\n    function endDonation(uint _serialNo) public {\r\n        Item memory _item = items[_serialNo];\r\n        require(_item.serialNo > 0 && _item.serialNo <= sn, 'Item should be in donation');\r\n        require(_item.isAcceptable, 'This donation is end');\r\n        require(msg.sender == items[_serialNo].donee, 'only end donation by oneself');\r\n\r\n        items[_serialNo].isAcceptable = false;\r\n       \r\n        //Trigger an event\r\n        emit updateItem(\r\n            items[_serialNo].serialNo,\r\n            items[_serialNo].donee,\r\n            items[_serialNo].itemId,\r\n            items[_serialNo].itemName,\r\n            items[_serialNo].amount,\r\n            items[_serialNo].claimed,\r\n            items[_serialNo].transporting,\r\n            items[_serialNo].received,\r\n            items[_serialNo].isAcceptable\r\n        );\r\n\r\n    }\r\n\r\n    \r\n    function listSerialNo(address _donee) public view returns (uint[] memory) {\r\n        return donees[_donee];\r\n    }\r\n\r\n    function listDonateNo(address _donor) public view returns (uint[] memory) {\r\n        return donors[_donor];\r\n    }\r\n    // function itemRecords() public view returns() {\r\n    //     return itemRecord;\r\n    // }\r\n    function doneeRecord(uint _serialNo) public view returns (uint serialNo, string memory itemName, uint amount, uint transporting, uint received, bool isAcceptable) {\r\n        require(_serialNo > 0 && _serialNo <= sn, 'Item should be in donation');\r\n        string memory _itemName;\r\n        uint _amount;\r\n        uint _transporting;\r\n        uint _received;\r\n        bool _isAcceptable;\r\n        require(_serialNo ==  items[_serialNo].serialNo, 'Item sn not match');\r\n        _itemName = items[_serialNo].itemName;\r\n        _amount = items[_serialNo].amount;\r\n        _transporting = items[_serialNo].transporting;\r\n        _received = items[_serialNo].received;\r\n        _isAcceptable = items[_serialNo].isAcceptable;\r\n        //return Item[_serialNo];\r\n        return (_serialNo, _itemName, _amount, _transporting, _received, _isAcceptable);\r\n    }\r\n    // function donationRecords() public view{\r\n    //     return donationRecord;\r\n    // }\r\n    \r\n    function donorRecord(uint _donateNo) public view returns (uint donateNo, uint serialNo, string memory itemName, uint amount, uint status) {\r\n        require(_donateNo > 0 && _donateNo <= dn, 'donation num out of range');\r\n        uint _serialNo;\r\n        string memory _itemName;\r\n        uint _amount;\r\n        uint _status;\r\n        require(_donateNo == donations[_donateNo].donateNo, 'donation sn not match');\r\n        _serialNo = donations[_donateNo].serialNo;\r\n        _itemName = donations[_donateNo].itemName;\r\n        _amount = donations[_donateNo].amount;\r\n        _status = donations[_donateNo].status;\r\n        return (_donateNo, _serialNo, _itemName,_amount, _status);\r\n    }\r\n}",
  "sourcePath": "E:\\EECE571Project\\src\\contracts\\EthDonation.sol",
  "compiler": {
    "name": "solc",
    "version": "0.5.16+commit.9c3226ce.Emscripten.clang"
  },
  "schemaVersion": "3.0.23",
  "updatedAt": "2020-04-24T19:27:34.885Z",
  "networkType": "ethereum",
  "devdoc": {
    "methods": {}
  },
  "userdoc": {
    "methods": {}
  }
}