{
  "contractName": "EthDonation",
  "abi": [
    {
      "inputs": [],
      "payable": false,
      "stateMutability": "nonpayable",
      "type": "constructor"
    },
    {
      "anonymous": false,
      "inputs": [
        {
          "indexed": false,
          "internalType": "uint256",
          "name": "donateNo",
          "type": "uint256"
        },
        {
          "indexed": false,
          "internalType": "address",
          "name": "doner",
          "type": "address"
        },
        {
          "indexed": false,
          "internalType": "uint256",
          "name": "serialNo",
          "type": "uint256"
        },
        {
          "indexed": false,
          "internalType": "uint256",
          "name": "amount",
          "type": "uint256"
        },
        {
          "indexed": false,
          "internalType": "string",
          "name": "itemName",
          "type": "string"
        },
        {
          "indexed": false,
          "internalType": "string",
          "name": "trackingNo",
          "type": "string"
        },
        {
          "indexed": false,
          "internalType": "uint256",
          "name": "status",
          "type": "uint256"
        }
      ],
      "name": "updateDonation",
      "type": "event"
    },
    {
      "anonymous": false,
      "inputs": [
        {
          "indexed": false,
          "internalType": "uint256",
          "name": "serialNo",
          "type": "uint256"
        },
        {
          "indexed": false,
          "internalType": "address",
          "name": "donee",
          "type": "address"
        },
        {
          "indexed": false,
          "internalType": "uint256",
          "name": "itemId",
          "type": "uint256"
        },
        {
          "indexed": false,
          "internalType": "string",
          "name": "itemName",
          "type": "string"
        },
        {
          "indexed": false,
          "internalType": "uint256",
          "name": "amount",
          "type": "uint256"
        },
        {
          "indexed": false,
          "internalType": "uint256",
          "name": "transporting",
          "type": "uint256"
        },
        {
          "indexed": false,
          "internalType": "uint256",
          "name": "recieved",
          "type": "uint256"
        },
        {
          "indexed": false,
          "internalType": "bool",
          "name": "isAcceptable",
          "type": "bool"
        }
      ],
      "name": "updateItem",
      "type": "event"
    },
    {
      "constant": true,
      "inputs": [],
      "name": "dn",
      "outputs": [
        {
          "internalType": "uint256",
          "name": "",
          "type": "uint256"
        }
      ],
      "payable": false,
      "stateMutability": "view",
      "type": "function"
    },
    {
      "constant": true,
      "inputs": [
        {
          "internalType": "uint256",
          "name": "",
          "type": "uint256"
        }
      ],
      "name": "donationRecord",
      "outputs": [
        {
          "internalType": "uint256",
          "name": "denoteNo",
          "type": "uint256"
        },
        {
          "internalType": "address",
          "name": "doner",
          "type": "address"
        },
        {
          "internalType": "uint256",
          "name": "serialNo",
          "type": "uint256"
        },
        {
          "internalType": "uint256",
          "name": "amount",
          "type": "uint256"
        },
        {
          "internalType": "string",
          "name": "itemName",
          "type": "string"
        },
        {
          "internalType": "string",
          "name": "trackingNo",
          "type": "string"
        },
        {
          "internalType": "uint256",
          "name": "status",
          "type": "uint256"
        }
      ],
      "payable": false,
      "stateMutability": "view",
      "type": "function"
    },
    {
      "constant": true,
      "inputs": [
        {
          "internalType": "uint256",
          "name": "",
          "type": "uint256"
        }
      ],
      "name": "donations",
      "outputs": [
        {
          "internalType": "uint256",
          "name": "denoteNo",
          "type": "uint256"
        },
        {
          "internalType": "address",
          "name": "doner",
          "type": "address"
        },
        {
          "internalType": "uint256",
          "name": "serialNo",
          "type": "uint256"
        },
        {
          "internalType": "uint256",
          "name": "amount",
          "type": "uint256"
        },
        {
          "internalType": "string",
          "name": "itemName",
          "type": "string"
        },
        {
          "internalType": "string",
          "name": "trackingNo",
          "type": "string"
        },
        {
          "internalType": "uint256",
          "name": "status",
          "type": "uint256"
        }
      ],
      "payable": false,
      "stateMutability": "view",
      "type": "function"
    },
    {
      "constant": true,
      "inputs": [
        {
          "internalType": "uint256",
          "name": "",
          "type": "uint256"
        }
      ],
      "name": "itemRecord",
      "outputs": [
        {
          "internalType": "uint256",
          "name": "serialNo",
          "type": "uint256"
        },
        {
          "internalType": "address",
          "name": "donee",
          "type": "address"
        },
        {
          "internalType": "uint256",
          "name": "itemId",
          "type": "uint256"
        },
        {
          "internalType": "string",
          "name": "itemName",
          "type": "string"
        },
        {
          "internalType": "uint256",
          "name": "amount",
          "type": "uint256"
        },
        {
          "internalType": "uint256",
          "name": "transporting",
          "type": "uint256"
        },
        {
          "internalType": "uint256",
          "name": "recieved",
          "type": "uint256"
        },
        {
          "internalType": "bool",
          "name": "isAcceptable",
          "type": "bool"
        }
      ],
      "payable": false,
      "stateMutability": "view",
      "type": "function"
    },
    {
      "constant": true,
      "inputs": [
        {
          "internalType": "uint256",
          "name": "",
          "type": "uint256"
        }
      ],
      "name": "items",
      "outputs": [
        {
          "internalType": "uint256",
          "name": "serialNo",
          "type": "uint256"
        },
        {
          "internalType": "address",
          "name": "donee",
          "type": "address"
        },
        {
          "internalType": "uint256",
          "name": "itemId",
          "type": "uint256"
        },
        {
          "internalType": "string",
          "name": "itemName",
          "type": "string"
        },
        {
          "internalType": "uint256",
          "name": "amount",
          "type": "uint256"
        },
        {
          "internalType": "uint256",
          "name": "transporting",
          "type": "uint256"
        },
        {
          "internalType": "uint256",
          "name": "recieved",
          "type": "uint256"
        },
        {
          "internalType": "bool",
          "name": "isAcceptable",
          "type": "bool"
        }
      ],
      "payable": false,
      "stateMutability": "view",
      "type": "function"
    },
    {
      "constant": true,
      "inputs": [],
      "name": "sn",
      "outputs": [
        {
          "internalType": "uint256",
          "name": "",
          "type": "uint256"
        }
      ],
      "payable": false,
      "stateMutability": "view",
      "type": "function"
    },
    {
      "constant": true,
      "inputs": [],
      "name": "storeName",
      "outputs": [
        {
          "internalType": "string",
          "name": "",
          "type": "string"
        }
      ],
      "payable": false,
      "stateMutability": "view",
      "type": "function"
    },
    {
      "constant": false,
      "inputs": [
        {
          "internalType": "string",
          "name": "_itemName",
          "type": "string"
        },
        {
          "internalType": "uint256",
          "name": "_amount",
          "type": "uint256"
        }
      ],
      "name": "createItem",
      "outputs": [],
      "payable": false,
      "stateMutability": "nonpayable",
      "type": "function"
    },
    {
      "constant": false,
      "inputs": [
        {
          "internalType": "uint256",
          "name": "_serialNo",
          "type": "uint256"
        },
        {
          "internalType": "uint256",
          "name": "_amount",
          "type": "uint256"
        }
      ],
      "name": "donateItem",
      "outputs": [],
      "payable": false,
      "stateMutability": "nonpayable",
      "type": "function"
    },
    {
      "constant": false,
      "inputs": [
        {
          "internalType": "uint256",
          "name": "_denoteNo",
          "type": "uint256"
        },
        {
          "internalType": "string",
          "name": "_trackingNo",
          "type": "string"
        }
      ],
      "name": "transportItem",
      "outputs": [],
      "payable": false,
      "stateMutability": "nonpayable",
      "type": "function"
    },
    {
      "constant": false,
      "inputs": [
        {
          "internalType": "uint256",
          "name": "_denoteNo",
          "type": "uint256"
        }
      ],
      "name": "receiveItem",
      "outputs": [],
      "payable": false,
      "stateMutability": "nonpayable",
      "type": "function"
    },
    {
      "constant": false,
      "inputs": [
        {
          "internalType": "uint256",
          "name": "_denoteNo",
          "type": "uint256"
        }
      ],
      "name": "cancelDonation",
      "outputs": [],
      "payable": false,
      "stateMutability": "nonpayable",
      "type": "function"
    },
    {
      "constant": false,
      "inputs": [
        {
          "internalType": "uint256",
          "name": "_serialNo",
          "type": "uint256"
        }
      ],
      "name": "endDonation",
      "outputs": [],
      "payable": false,
      "stateMutability": "nonpayable",
      "type": "function"
    },
    {
      "constant": true,
      "inputs": [
        {
          "internalType": "address",
          "name": "_donee",
          "type": "address"
        }
      ],
      "name": "listSerialNo",
      "outputs": [
        {
          "internalType": "uint256[]",
          "name": "",
          "type": "uint256[]"
        }
      ],
      "payable": false,
      "stateMutability": "view",
      "type": "function"
    },
    {
      "constant": true,
      "inputs": [
        {
          "internalType": "address",
          "name": "_doner",
          "type": "address"
        }
      ],
      "name": "listDonateNo",
      "outputs": [
        {
          "internalType": "uint256[]",
          "name": "",
          "type": "uint256[]"
        }
      ],
      "payable": false,
      "stateMutability": "view",
      "type": "function"
    },
    {
      "constant": true,
      "inputs": [
        {
          "internalType": "uint256",
          "name": "_serialNo",
          "type": "uint256"
        }
      ],
      "name": "doneeRecord",
      "outputs": [
        {
          "internalType": "uint256",
          "name": "serialNo",
          "type": "uint256"
        },
        {
          "internalType": "string",
          "name": "itemName",
          "type": "string"
        },
        {
          "internalType": "uint256",
          "name": "amount",
          "type": "uint256"
        },
        {
          "internalType": "uint256",
          "name": "transporting",
          "type": "uint256"
        },
        {
          "internalType": "uint256",
          "name": "recieved",
          "type": "uint256"
        },
        {
          "internalType": "bool",
          "name": "isAcceptable",
          "type": "bool"
        }
      ],
      "payable": false,
      "stateMutability": "view",
      "type": "function"
    },
    {
      "constant": true,
      "inputs": [
        {
          "internalType": "uint256",
          "name": "_donateNo",
          "type": "uint256"
        }
      ],
      "name": "donerRecord",
      "outputs": [
        {
          "internalType": "uint256",
          "name": "denoteNo",
          "type": "uint256"
        },
        {
          "internalType": "uint256",
          "name": "serialNo",
          "type": "uint256"
        },
        {
          "internalType": "string",
          "name": "itemName",
          "type": "string"
        },
        {
          "internalType": "uint256",
          "name": "amount",
          "type": "uint256"
        },
        {
          "internalType": "uint256",
          "name": "status",
          "type": "uint256"
        }
      ],
      "payable": false,
      "stateMutability": "view",
      "type": "function"
    }
  ],
  "bytecode": "0x6080604052600060015560006002553480156200001b57600080fd5b506040518060600160405280602481526020016200460960249139600090805190602001906200004d92919062000054565b5062000103565b828054600181600116156101000203166002900490600052602060002090601f016020900481019282601f106200009757805160ff1916838001178555620000c8565b82800160010185558215620000c8579182015b82811115620000c7578251825591602001919060010190620000aa565b5b509050620000d79190620000db565b5090565b6200010091905b80821115620000fc576000816000905550600101620000e2565b5090565b90565b6144f680620001136000396000f3fe608060405234801561001057600080fd5b506004361061010b5760003560e01c80636cab712b116100a2578063bdc70ca211610071578063bdc70ca2146107a2578063bfb231d214610865578063d7c1aa211461096d578063f8626af814610a32578063f872bec014610b945761010b565b80636cab712b146106535780638c55174214610681578063993c800014610746578063a26be999146107745761010b565b8063448e5378116100de578063448e53781461039d5780634703853e146103d5578063521936e61461053757806354c6fec8146105ba5761010b565b806308ddc6131461011057806318fca06b146101a95780632c22e46a146102775780632d7181b514610295575b600080fd5b6101526004803603602081101561012657600080fd5b81019080803573ffffffffffffffffffffffffffffffffffffffff169060200190929190505050610bb2565b6040518080602001828103825283818151815260200191508051906020019060200280838360005b8381101561019557808201518184015260208101905061017a565b505050509050019250505060405180910390f35b6101d5600480360360208110156101bf57600080fd5b8101908080359060200190929190505050610c49565b604051808781526020018060200186815260200185815260200184815260200183151515158152602001828103825287818151815260200191508051906020019080838360005b8381101561023757808201518184015260208101905061021c565b50505050905090810190601f1680156102645780820380516001836020036101000a031916815260200191505b5097505050505050505060405180910390f35b61027f610eac565b6040518082815260200191505060405180910390f35b6102c1600480360360208110156102ab57600080fd5b8101908080359060200190929190505050610eb2565b604051808981526020018873ffffffffffffffffffffffffffffffffffffffff1673ffffffffffffffffffffffffffffffffffffffff1681526020018781526020018060200186815260200185815260200184815260200183151515158152602001828103825287818151815260200191508051906020019080838360005b8381101561035b578082015181840152602081019050610340565b50505050905090810190601f1680156103885780820380516001836020036101000a031916815260200191505b50995050505050505050505060405180910390f35b6103d3600480360360408110156103b357600080fd5b810190808035906020019092919080359060200190929190505050610fcc565b005b610401600480360360208110156103eb57600080fd5b81019080803590602001909291905050506118ae565b604051808881526020018773ffffffffffffffffffffffffffffffffffffffff1673ffffffffffffffffffffffffffffffffffffffff1681526020018681526020018581526020018060200180602001848152602001838103835286818151815260200191508051906020019080838360005b8381101561048f578082015181840152602081019050610474565b50505050905090810190601f1680156104bc5780820380516001836020036101000a031916815260200191505b50838103825285818151815260200191508051906020019080838360005b838110156104f55780820151818401526020810190506104da565b50505050905090810190601f1680156105225780820380516001836020036101000a031916815260200191505b50995050505050505050505060405180910390f35b61053f611a4d565b6040518080602001828103825283818151815260200191508051906020019080838360005b8381101561057f578082015181840152602081019050610564565b50505050905090810190601f1680156105ac5780820380516001836020036101000a031916815260200191505b509250505060405180910390f35b6105fc600480360360208110156105d057600080fd5b81019080803573ffffffffffffffffffffffffffffffffffffffff169060200190929190505050611aeb565b6040518080602001828103825283818151815260200191508051906020019060200280838360005b8381101561063f578082015181840152602081019050610624565b505050509050019250505060405180910390f35b61067f6004803603602081101561066957600080fd5b8101908080359060200190929190505050611b82565b005b6107446004803603604081101561069757600080fd5b81019080803590602001906401000000008111156106b457600080fd5b8201836020820111156106c657600080fd5b803590602001918460018302840111640100000000831117156106e857600080fd5b91908080601f016020809104026020016040519081016040528093929190818152602001838380828437600081840152601f19601f820116905080830192505050505050509192919290803590602001909291905050506120fa565b005b6107726004803603602081101561075c57600080fd5b81019080803590602001909291905050506124ed565b005b6107a06004803603602081101561078a57600080fd5b8101908080359060200190929190505050612d1f565b005b6107ce600480360360208110156107b857600080fd5b81019080803590602001909291905050506137de565b6040518086815260200185815260200180602001848152602001838152602001828103825285818151815260200191508051906020019080838360005b8381101561082657808201518184015260208101905061080b565b50505050905090810190601f1680156108535780820380516001836020036101000a031916815260200191505b50965050505050505060405180910390f35b6108916004803603602081101561087b57600080fd5b8101908080359060200190929190505050613a14565b604051808981526020018873ffffffffffffffffffffffffffffffffffffffff1673ffffffffffffffffffffffffffffffffffffffff1681526020018781526020018060200186815260200185815260200184815260200183151515158152602001828103825287818151815260200191508051906020019080838360005b8381101561092b578082015181840152602081019050610910565b50505050905090810190601f1680156109585780820380516001836020036101000a031916815260200191505b50995050505050505050505060405180910390f35b610a306004803603604081101561098357600080fd5b8101908080359060200190929190803590602001906401000000008111156109aa57600080fd5b8201836020820111156109bc57600080fd5b803590602001918460018302840111640100000000831117156109de57600080fd5b91908080601f016020809104026020016040519081016040528093929190818152602001838380828437600081840152601f19601f820116905080830192505050505050509192919290505050613b21565b005b610a5e60048036036020811015610a4857600080fd5b81019080803590602001909291905050506140cd565b604051808881526020018773ffffffffffffffffffffffffffffffffffffffff1673ffffffffffffffffffffffffffffffffffffffff1681526020018681526020018581526020018060200180602001848152602001838103835286818151815260200191508051906020019080838360005b83811015610aec578082015181840152602081019050610ad1565b50505050905090810190601f168015610b195780820380516001836020036101000a031916815260200191505b50838103825285818151815260200191508051906020019080838360005b83811015610b52578082015181840152602081019050610b37565b50505050905090810190601f168015610b7f5780820380516001836020036101000a031916815260200191505b50995050505050505050505060405180910390f35b610b9c61425f565b6040518082815260200191505060405180910390f35b6060600660008373ffffffffffffffffffffffffffffffffffffffff1673ffffffffffffffffffffffffffffffffffffffff168152602001908152602001600020805480602002602001604051908101604052809291908181526020018280548015610c3d57602002820191906000526020600020905b815481526020019060010190808311610c29575b50505050509050919050565b60006060600080600080600087118015610c6557506001548711155b610cd7576040517f08c379a000000000000000000000000000000000000000000000000000000000815260040180806020018281038252601a8152602001807f4974656d2073686f756c6420626520696e20646f6e6174696f6e00000000000081525060200191505060405180910390fd5b6060600080600080600360008d8152602001908152602001600020600001548c14610d6a576040517f08c379a00000000000000000000000000000000000000000000000000000000081526004018080602001828103825260118152602001807f4974656d20736e206e6f74206d6174636800000000000000000000000000000081525060200191505060405180910390fd5b600360008d81526020019081526020016000206003018054600181600116156101000203166002900480601f016020809104026020016040519081016040528092919081815260200182805460018160011615610100020316600290048015610e145780601f10610de957610100808354040283529160200191610e14565b820191906000526020600020905b815481529060010190602001808311610df757829003601f168201915b50505050509450600360008d8152602001908152602001600020600401549350600360008d8152602001908152602001600020600501549250600360008d8152602001908152602001600020600601549150600360008d815260200190815260200160002060070160009054906101000a900460ff1690508b85858585859a509a509a509a509a509a50505050505091939550919395565b60025481565b60078181548110610ebf57fe5b90600052602060002090600802016000915090508060000154908060010160009054906101000a900473ffffffffffffffffffffffffffffffffffffffff1690806002015490806003018054600181600116156101000203166002900480601f016020809104026020016040519081016040528092919081815260200182805460018160011615610100020316600290048015610f9d5780601f10610f7257610100808354040283529160200191610f9d565b820191906000526020600020905b815481529060010190602001808311610f8057829003601f168201915b5050505050908060040154908060050154908060060154908060070160009054906101000a900460ff16905088565b610fd4614265565b6003600084815260200190815260200160002060405180610100016040529081600082015481526020016001820160009054906101000a900473ffffffffffffffffffffffffffffffffffffffff1673ffffffffffffffffffffffffffffffffffffffff1673ffffffffffffffffffffffffffffffffffffffff16815260200160028201548152602001600382018054600181600116156101000203166002900480601f0160208091040260200160405190810160405280929190818152602001828054600181600116156101000203166002900480156110f65780601f106110cb576101008083540402835291602001916110f6565b820191906000526020600020905b8154815290600101906020018083116110d957829003601f168201915b505050505081526020016004820154815260200160058201548152602001600682015481526020016007820160009054906101000a900460ff1615151515815250509050600081600001511180156111545750600154816000015111155b6111c6576040517f08c379a000000000000000000000000000000000000000000000000000000000815260040180806020018281038252601a8152602001807f4974656d2073686f756c6420626520696e20646f6e6174696f6e00000000000081525060200191505060405180910390fd5b6000821161123c576040517f08c379a00000000000000000000000000000000000000000000000000000000081526004018080602001828103825260198152602001807f4974656d277320616d6f756e742069732072657175697265640000000000000081525060200191505060405180910390fd5b80608001518160c001518260a0015101106112bf576040517f08c379a000000000000000000000000000000000000000000000000000000000815260040180806020018281038252601a8152602001807f4974656d20697320656e6f7567682074656d706f726172696c7900000000000081525060200191505060405180910390fd5b8060e00151611336576040517f08c379a00000000000000000000000000000000000000000000000000000000081526004018080602001828103825260148152602001807f5468697320646f6e6174696f6e20697320656e6400000000000000000000000081525060200191505060405180910390fd5b806020015173ffffffffffffffffffffffffffffffffffffffff163373ffffffffffffffffffffffffffffffffffffffff1614156113dc576040517f08c379a00000000000000000000000000000000000000000000000000000000081526004018080602001828103825260128152602001807f63616e6e6f7420646f6e6174652073656c66000000000000000000000000000081525060200191505060405180910390fd5b6002600081548092919060010191905055506113f66142c2565b60025481600001818152505033816020019073ffffffffffffffffffffffffffffffffffffffff16908173ffffffffffffffffffffffffffffffffffffffff168152505083816040018181525050828260c001518360a0015184608001510303111561146b5782816060018181525050611486565b8160c001518260a00151836080015103038160600181815250505b81606001518160800181905250604051806020016040528060008152508160a0018190525060008160c0018181525050806005600060025481526020019081526020016000206000820151816000015560208201518160010160006101000a81548173ffffffffffffffffffffffffffffffffffffffff021916908373ffffffffffffffffffffffffffffffffffffffff1602179055506040820151816002015560608201518160030155608082015181600401908051906020019061154d929190614315565b5060a082015181600501908051906020019061156a929190614315565b5060c08201518160060155905050600660003373ffffffffffffffffffffffffffffffffffffffff1673ffffffffffffffffffffffffffffffffffffffff1681526020019081526020016000206002549080600181540180825580915050906001820390600052602060002001600090919290919091505550806060015160036000868152602001908152602001600020600501600082825401925050819055507fbcd81c07bfa3b6c86661f6961e88482d3b1bd8300d59edf875f2de3a9acb5a7e826000015183602001518460400151856060015186608001518760a001518860c001518960e00151604051808981526020018873ffffffffffffffffffffffffffffffffffffffff1673ffffffffffffffffffffffffffffffffffffffff1681526020018781526020018060200186815260200185815260200184815260200183151515158152602001828103825287818151815260200191508051906020019080838360005b838110156116ee5780820151818401526020810190506116d3565b50505050905090810190601f16801561171b5780820380516001836020036101000a031916815260200191505b50995050505050505050505060405180910390a17fb164ee32678f041dd5ccafb0425dd571f6a65fad1ec5329fb50b29a7eb152c2f816000015182602001518360400151846060015185608001518660a001518760c00151604051808881526020018773ffffffffffffffffffffffffffffffffffffffff1673ffffffffffffffffffffffffffffffffffffffff1681526020018681526020018581526020018060200180602001848152602001838103835286818151815260200191508051906020019080838360005b838110156118015780820151818401526020810190506117e6565b50505050905090810190601f16801561182e5780820380516001836020036101000a031916815260200191505b50838103825285818151815260200191508051906020019080838360005b8381101561186757808201518184015260208101905061184c565b50505050905090810190601f1680156118945780820380516001836020036101000a031916815260200191505b50995050505050505050505060405180910390a150505050565b600881815481106118bb57fe5b90600052602060002090600702016000915090508060000154908060010160009054906101000a900473ffffffffffffffffffffffffffffffffffffffff1690806002015490806003015490806004018054600181600116156101000203166002900480601f01602080910402602001604051908101604052809291908181526020018280546001816001161561010002031660029004801561199f5780601f106119745761010080835404028352916020019161199f565b820191906000526020600020905b81548152906001019060200180831161198257829003601f168201915b505050505090806005018054600181600116156101000203166002900480601f016020809104026020016040519081016040528092919081815260200182805460018160011615610100020316600290048015611a3d5780601f10611a1257610100808354040283529160200191611a3d565b820191906000526020600020905b815481529060010190602001808311611a2057829003601f168201915b5050505050908060060154905087565b60008054600181600116156101000203166002900480601f016020809104026020016040519081016040528092919081815260200182805460018160011615610100020316600290048015611ae35780601f10611ab857610100808354040283529160200191611ae3565b820191906000526020600020905b815481529060010190602001808311611ac657829003601f168201915b505050505081565b6060600460008373ffffffffffffffffffffffffffffffffffffffff1673ffffffffffffffffffffffffffffffffffffffff168152602001908152602001600020805480602002602001604051908101604052809291908181526020018280548015611b7657602002820191906000526020600020905b815481526020019060010190808311611b62575b50505050509050919050565b611b8a614265565b6003600083815260200190815260200160002060405180610100016040529081600082015481526020016001820160009054906101000a900473ffffffffffffffffffffffffffffffffffffffff1673ffffffffffffffffffffffffffffffffffffffff1673ffffffffffffffffffffffffffffffffffffffff16815260200160028201548152602001600382018054600181600116156101000203166002900480601f016020809104026020016040519081016040528092919081815260200182805460018160011615610100020316600290048015611cac5780601f10611c8157610100808354040283529160200191611cac565b820191906000526020600020905b815481529060010190602001808311611c8f57829003601f168201915b505050505081526020016004820154815260200160058201548152602001600682015481526020016007820160009054906101000a900460ff161515151581525050905060008160000151118015611d0a5750600154816000015111155b611d7c576040517f08c379a000000000000000000000000000000000000000000000000000000000815260040180806020018281038252601a8152602001807f4974656d2073686f756c6420626520696e20646f6e6174696f6e00000000000081525060200191505060405180910390fd5b8060e00151611df3576040517f08c379a00000000000000000000000000000000000000000000000000000000081526004018080602001828103825260148152602001807f5468697320646f6e6174696f6e20697320656e6400000000000000000000000081525060200191505060405180910390fd5b6003600083815260200190815260200160002060010160009054906101000a900473ffffffffffffffffffffffffffffffffffffffff1673ffffffffffffffffffffffffffffffffffffffff163373ffffffffffffffffffffffffffffffffffffffff1614611eca576040517f08c379a000000000000000000000000000000000000000000000000000000000815260040180806020018281038252601c8152602001807f6f6e6c7920656e6420646f6e6174696f6e206279206f6e6573656c660000000081525060200191505060405180910390fd5b60006003600084815260200190815260200160002060070160006101000a81548160ff0219169083151502179055507fbcd81c07bfa3b6c86661f6961e88482d3b1bd8300d59edf875f2de3a9acb5a7e60036000848152602001908152602001600020600001546003600085815260200190815260200160002060010160009054906101000a900473ffffffffffffffffffffffffffffffffffffffff1660036000868152602001908152602001600020600201546003600087815260200190815260200160002060030160036000888152602001908152602001600020600401546003600089815260200190815260200160002060050154600360008a815260200190815260200160002060060154600360008b815260200190815260200160002060070160009054906101000a900460ff16604051808981526020018873ffffffffffffffffffffffffffffffffffffffff1673ffffffffffffffffffffffffffffffffffffffff16815260200187815260200180602001868152602001858152602001848152602001831515151581526020018281038252878181546001816001161561010002031660029004815260200191508054600181600116156101000203166002900480156120e15780601f106120b6576101008083540402835291602001916120e1565b820191906000526020600020905b8154815290600101906020018083116120c457829003601f168201915b5050995050505050505050505060405180910390a15050565b6000825111612171576040517f08c379a00000000000000000000000000000000000000000000000000000000081526004018080602001828103825260178152602001807f4974656d2773206e616d6520697320726571756972656400000000000000000081525060200191505060405180910390fd5b600081116121e7576040517f08c379a00000000000000000000000000000000000000000000000000000000081526004018080602001828103825260198152602001807f4974656d277320616d6f756e742069732072657175697265640000000000000081525060200191505060405180910390fd5b600160008154809291906001019190505550612201614265565b60015481600001818152505033816020019073ffffffffffffffffffffffffffffffffffffffff16908173ffffffffffffffffffffffffffffffffffffffff168152505060008160400181815250508281606001819052508181608001818152505060008160a001818152505060008160c001818152505060018160e0019015159081151581525050806003600060015481526020019081526020016000206000820151816000015560208201518160010160006101000a81548173ffffffffffffffffffffffffffffffffffffffff021916908373ffffffffffffffffffffffffffffffffffffffff160217905550604082015181600201556060820151816003019080519060200190612317929190614315565b506080820151816004015560a0820151816005015560c0820151816006015560e08201518160070160006101000a81548160ff021916908315150217905550905050600460003373ffffffffffffffffffffffffffffffffffffffff1673ffffffffffffffffffffffffffffffffffffffff16815260200190815260200160002060015490806001815401808255809150509060018203906000526020600020016000909192909190915055507fbcd81c07bfa3b6c86661f6961e88482d3b1bd8300d59edf875f2de3a9acb5a7e816000015182602001518360400151846060015185608001518660a001518760c001518860e00151604051808981526020018873ffffffffffffffffffffffffffffffffffffffff1673ffffffffffffffffffffffffffffffffffffffff1681526020018781526020018060200186815260200185815260200184815260200183151515158152602001828103825287818151815260200191508051906020019080838360005b838110156124a757808201518184015260208101905061248c565b50505050905090810190601f1680156124d45780820380516001836020036101000a031916815260200191505b50995050505050505050505060405180910390a1505050565b6000811180156124ff57506002548111155b612571576040517f08c379a00000000000000000000000000000000000000000000000000000000081526004018080602001828103825260128152602001807f646f6e6174696f6e206e6f74206578736974000000000000000000000000000081525060200191505060405180910390fd5b60006005600083815260200190815260200160002060060154146125fd576040517f08c379a00000000000000000000000000000000000000000000000000000000081526004018080602001828103825260138152602001807f6974656d2063616e6e6f742063616e6365656c0000000000000000000000000081525060200191505060405180910390fd5b60006005600083815260200190815260200160002060020154905060008111801561262a57506001548111155b61269c576040517f08c379a000000000000000000000000000000000000000000000000000000000815260040180806020018281038252601a8152602001807f4974656d2073686f756c6420626520696e20646f6e6174696f6e00000000000081525060200191505060405180910390fd5b80600360008381526020019081526020016000206000015414612727576040517f08c379a00000000000000000000000000000000000000000000000000000000081526004018080602001828103825260128152602001807f73657269616c4e6f206e6f74206d61746368000000000000000000000000000081525060200191505060405180910390fd5b6005600083815260200190815260200160002060010160009054906101000a900473ffffffffffffffffffffffffffffffffffffffff1673ffffffffffffffffffffffffffffffffffffffff163373ffffffffffffffffffffffffffffffffffffffff16146127fe576040517f08c379a000000000000000000000000000000000000000000000000000000000815260040180806020018281038252601e8152602001807f73686f756c642062652063616e63656c6c6564206279206f6e6573656c66000081525060200191505060405180910390fd5b600460056000848152602001908152602001600020600601819055506005600083815260200190815260200160002060030154600360008381526020019081526020016000206005016000828254039250508190555060036000828152602001908152602001600020600401546003600083815260200190815260200160002060050154600360008481526020019081526020016000206006015401106128cf5760006003600083815260200190815260200160002060070160006101000a81548160ff0219169083151502179055505b7fb164ee32678f041dd5ccafb0425dd571f6a65fad1ec5329fb50b29a7eb152c2f60056000848152602001908152602001600020600001546005600085815260200190815260200160002060010160009054906101000a900473ffffffffffffffffffffffffffffffffffffffff16600560008681526020019081526020016000206002015460056000878152602001908152602001600020600301546005600088815260200190815260200160002060040160056000898152602001908152602001600020600501600560008a815260200190815260200160002060060154604051808881526020018773ffffffffffffffffffffffffffffffffffffffff1673ffffffffffffffffffffffffffffffffffffffff1681526020018681526020018581526020018060200180602001848152602001838103835286818154600181600116156101000203166002900481526020019150805460018160011615610100020316600290048015612a865780601f10612a5b57610100808354040283529160200191612a86565b820191906000526020600020905b815481529060010190602001808311612a6957829003601f168201915b5050838103825285818154600181600116156101000203166002900481526020019150805460018160011615610100020316600290048015612b095780601f10612ade57610100808354040283529160200191612b09565b820191906000526020600020905b815481529060010190602001808311612aec57829003601f168201915b5050995050505050505050505060405180910390a17fbcd81c07bfa3b6c86661f6961e88482d3b1bd8300d59edf875f2de3a9acb5a7e60036000838152602001908152602001600020600001546003600084815260200190815260200160002060010160009054906101000a900473ffffffffffffffffffffffffffffffffffffffff16600360008581526020019081526020016000206002015460036000868152602001908152602001600020600301600360008781526020019081526020016000206004015460036000888152602001908152602001600020600501546003600089815260200190815260200160002060060154600360008a815260200190815260200160002060070160009054906101000a900460ff16604051808981526020018873ffffffffffffffffffffffffffffffffffffffff1673ffffffffffffffffffffffffffffffffffffffff1681526020018781526020018060200186815260200185815260200184815260200183151515158152602001828103825287818154600181600116156101000203166002900481526020019150805460018160011615610100020316600290048015612d065780601f10612cdb57610100808354040283529160200191612d06565b820191906000526020600020905b815481529060010190602001808311612ce957829003601f168201915b5050995050505050505050505060405180910390a15050565b600081118015612d3157506002548111155b612da3576040517f08c379a00000000000000000000000000000000000000000000000000000000081526004018080602001828103825260128152602001807f646f6e6174696f6e206e6f74206578736974000000000000000000000000000081525060200191505060405180910390fd5b6001600560008381526020019081526020016000206006015414612e2f576040517f08c379a000000000000000000000000000000000000000000000000000000000815260040180806020018281038252601c8152602001807f6974656d2073686f756c64206265656e207472616e706f7274696e670000000081525060200191505060405180910390fd5b600060056000838152602001908152602001600020600201549050600081118015612e5c57506001548111155b612ece576040517f08c379a000000000000000000000000000000000000000000000000000000000815260040180806020018281038252601a8152602001807f4974656d2073686f756c6420626520696e20646f6e6174696f6e00000000000081525060200191505060405180910390fd5b80600360008381526020019081526020016000206000015414612f59576040517f08c379a00000000000000000000000000000000000000000000000000000000081526004018080602001828103825260128152602001807f73657269616c4e6f206e6f74206d61746368000000000000000000000000000081525060200191505060405180910390fd5b6003600082815260200190815260200160002060010160009054906101000a900473ffffffffffffffffffffffffffffffffffffffff1673ffffffffffffffffffffffffffffffffffffffff163373ffffffffffffffffffffffffffffffffffffffff1614613030576040517f08c379a00000000000000000000000000000000000000000000000000000000081526004018080602001828103825260198152602001807f73686f756c64206265207369676e656420627920646f6e65650000000000000081525060200191505060405180910390fd5b600260056000848152602001908152602001600020600601819055506005600083815260200190815260200160002060030154600360008381526020019081526020016000206005016000828254039250508190555060056000838152602001908152602001600020600301546003600083815260200190815260200160002060060160008282540192505081905550600360008281526020019081526020016000206004015460036000838152602001908152602001600020600501546003600084815260200190815260200160002060060154011061313b5760006003600083815260200190815260200160002060070160006101000a81548160ff0219169083151502179055505b7fb164ee32678f041dd5ccafb0425dd571f6a65fad1ec5329fb50b29a7eb152c2f60056000848152602001908152602001600020600001546005600085815260200190815260200160002060010160009054906101000a900473ffffffffffffffffffffffffffffffffffffffff16600560008681526020019081526020016000206002015460056000878152602001908152602001600020600301546005600088815260200190815260200160002060040160056000898152602001908152602001600020600501600560008a815260200190815260200160002060060154604051808881526020018773ffffffffffffffffffffffffffffffffffffffff1673ffffffffffffffffffffffffffffffffffffffff16815260200186815260200185815260200180602001806020018481526020018381038352868181546001816001161561010002031660029004815260200191508054600181600116156101000203166002900480156132f25780601f106132c7576101008083540402835291602001916132f2565b820191906000526020600020905b8154815290600101906020018083116132d557829003601f168201915b50508381038252858181546001816001161561010002031660029004815260200191508054600181600116156101000203166002900480156133755780601f1061334a57610100808354040283529160200191613375565b820191906000526020600020905b81548152906001019060200180831161335857829003601f168201915b5050995050505050505050505060405180910390a17fbcd81c07bfa3b6c86661f6961e88482d3b1bd8300d59edf875f2de3a9acb5a7e60036000838152602001908152602001600020600001546003600084815260200190815260200160002060010160009054906101000a900473ffffffffffffffffffffffffffffffffffffffff16600360008581526020019081526020016000206002015460036000868152602001908152602001600020600301600360008781526020019081526020016000206004015460036000888152602001908152602001600020600501546003600089815260200190815260200160002060060154600360008a815260200190815260200160002060070160009054906101000a900460ff16604051808981526020018873ffffffffffffffffffffffffffffffffffffffff1673ffffffffffffffffffffffffffffffffffffffff16815260200187815260200180602001868152602001858152602001848152602001831515151581526020018281038252878181546001816001161561010002031660029004815260200191508054600181600116156101000203166002900480156135725780601f1061354757610100808354040283529160200191613572565b820191906000526020600020905b81548152906001019060200180831161355557829003601f168201915b5050995050505050505050505060405180910390a160076003600083815260200190815260200160002090806001815401808255809150509060018203906000526020600020906008020160009091929091909150600082015481600001556001820160009054906101000a900473ffffffffffffffffffffffffffffffffffffffff168160010160006101000a81548173ffffffffffffffffffffffffffffffffffffffff021916908373ffffffffffffffffffffffffffffffffffffffff1602179055506002820154816002015560038201816003019080546001816001161561010002031660029004613669929190614395565b506004820154816004015560058201548160050155600682015481600601556007820160009054906101000a900460ff168160070160006101000a81548160ff02191690831515021790555050505060086005600084815260200190815260200160002090806001815401808255809150509060018203906000526020600020906007020160009091929091909150600082015481600001556001820160009054906101000a900473ffffffffffffffffffffffffffffffffffffffff168160010160006101000a81548173ffffffffffffffffffffffffffffffffffffffff021916908373ffffffffffffffffffffffffffffffffffffffff1602179055506002820154816002015560038201548160030155600482018160040190805460018160011615610100020316600290046137a4929190614395565b50600582018160050190805460018160011615610100020316600290046137cc929190614395565b50600682015481600601555050505050565b60008060606000806000861180156137f857506002548611155b61386a576040517f08c379a00000000000000000000000000000000000000000000000000000000081526004018080602001828103825260198152602001807f646f6e6174696f6e206e756d206f7574206f662072616e67650000000000000081525060200191505060405180910390fd5b60006060600080600560008b8152602001908152602001600020600001548a146138fc576040517f08c379a00000000000000000000000000000000000000000000000000000000081526004018080602001828103825260158152602001807f646f6e6174696f6e20736e206e6f74206d61746368000000000000000000000081525060200191505060405180910390fd5b600560008b8152602001908152602001600020600201549350600560008b81526020019081526020016000206004018054600181600116156101000203166002900480601f0160208091040260200160405190810160405280929190818152602001828054600181600116156101000203166002900480156139bf5780601f10613994576101008083540402835291602001916139bf565b820191906000526020600020905b8154815290600101906020018083116139a257829003601f168201915b50505050509250600560008b8152602001908152602001600020600301549150600560008b81526020019081526020016000206006015490508984848484985098509850985098505050505091939590929450565b60036020528060005260406000206000915090508060000154908060010160009054906101000a900473ffffffffffffffffffffffffffffffffffffffff1690806002015490806003018054600181600116156101000203166002900480601f016020809104026020016040519081016040528092919081815260200182805460018160011615610100020316600290048015613af25780601f10613ac757610100808354040283529160200191613af2565b820191906000526020600020905b815481529060010190602001808311613ad557829003601f168201915b5050505050908060040154908060050154908060060154908060070160009054906101000a900460ff16905088565b600082118015613b3357506002548211155b613ba5576040517f08c379a00000000000000000000000000000000000000000000000000000000081526004018080602001828103825260128152602001807f646f6e6174696f6e206e6f74206578736974000000000000000000000000000081525060200191505060405180910390fd5b6000600560008481526020019081526020016000206006015414613c31576040517f08c379a00000000000000000000000000000000000000000000000000000000081526004018080602001828103825260188152602001807f6974656d2073686f756c64206265656e20636f6e6669726d000000000000000081525060200191505060405180910390fd5b600060056000848152602001908152602001600020600201549050600081118015613c5e57506001548111155b613cd0576040517f08c379a000000000000000000000000000000000000000000000000000000000815260040180806020018281038252601a8152602001807f4974656d2073686f756c6420626520696e20646f6e6174696f6e00000000000081525060200191505060405180910390fd5b80600360008381526020019081526020016000206000015414613d5b576040517f08c379a00000000000000000000000000000000000000000000000000000000081526004018080602001828103825260128152602001807f73657269616c4e6f206e6f74206d61746368000000000000000000000000000081525060200191505060405180910390fd5b6005600084815260200190815260200160002060010160009054906101000a900473ffffffffffffffffffffffffffffffffffffffff1673ffffffffffffffffffffffffffffffffffffffff163373ffffffffffffffffffffffffffffffffffffffff1614613e32576040517f08c379a00000000000000000000000000000000000000000000000000000000081526004018080602001828103825260198152602001807f73686f756c64206265207369676e656420627920646f6e65650000000000000081525060200191505060405180910390fd5b6001600560008581526020019081526020016000206006018190555081600560008581526020019081526020016000206005019080519060200190613e7892919061441c565b507fb164ee32678f041dd5ccafb0425dd571f6a65fad1ec5329fb50b29a7eb152c2f60056000858152602001908152602001600020600001546005600086815260200190815260200160002060010160009054906101000a900473ffffffffffffffffffffffffffffffffffffffff166005600087815260200190815260200160002060020154600560008881526020019081526020016000206003015460056000898152602001908152602001600020600401600560008a8152602001908152602001600020600501600560008b815260200190815260200160002060060154604051808881526020018773ffffffffffffffffffffffffffffffffffffffff1673ffffffffffffffffffffffffffffffffffffffff16815260200186815260200185815260200180602001806020018481526020018381038352868181546001816001161561010002031660029004815260200191508054600181600116156101000203166002900480156140305780601f1061400557610100808354040283529160200191614030565b820191906000526020600020905b81548152906001019060200180831161401357829003601f168201915b50508381038252858181546001816001161561010002031660029004815260200191508054600181600116156101000203166002900480156140b35780601f10614088576101008083540402835291602001916140b3565b820191906000526020600020905b81548152906001019060200180831161409657829003601f168201915b5050995050505050505050505060405180910390a1505050565b60056020528060005260406000206000915090508060000154908060010160009054906101000a900473ffffffffffffffffffffffffffffffffffffffff1690806002015490806003015490806004018054600181600116156101000203166002900480601f0160208091040260200160405190810160405280929190818152602001828054600181600116156101000203166002900480156141b15780601f10614186576101008083540402835291602001916141b1565b820191906000526020600020905b81548152906001019060200180831161419457829003601f168201915b505050505090806005018054600181600116156101000203166002900480601f01602080910402602001604051908101604052809291908181526020018280546001816001161561010002031660029004801561424f5780601f106142245761010080835404028352916020019161424f565b820191906000526020600020905b81548152906001019060200180831161423257829003601f168201915b5050505050908060060154905087565b60015481565b60405180610100016040528060008152602001600073ffffffffffffffffffffffffffffffffffffffff16815260200160008152602001606081526020016000815260200160008152602001600081526020016000151581525090565b6040518060e0016040528060008152602001600073ffffffffffffffffffffffffffffffffffffffff16815260200160008152602001600081526020016060815260200160608152602001600081525090565b828054600181600116156101000203166002900490600052602060002090601f016020900481019282601f1061435657805160ff1916838001178555614384565b82800160010185558215614384579182015b82811115614383578251825591602001919060010190614368565b5b509050614391919061449c565b5090565b828054600181600116156101000203166002900490600052602060002090601f016020900481019282601f106143ce578054855561440b565b8280016001018555821561440b57600052602060002091601f016020900482015b8281111561440a5782548255916001019190600101906143ef565b5b509050614418919061449c565b5090565b828054600181600116156101000203166002900490600052602060002090601f016020900481019282601f1061445d57805160ff191683800117855561448b565b8280016001018555821561448b579182015b8281111561448a57825182559160200191906001019061446f565b5b509050614498919061449c565b5090565b6144be91905b808211156144ba5760008160009055506001016144a2565b5090565b9056fea265627a7a7231582097830f2ba2fe389e52be270e97ac58cee12291f4356fed8c85f6bff6f1984e8964736f6c63430005100032456d657267656e6379205265736f7572636520446f6e6174696f6e20506c6174666f726d",
  "source": "pragma solidity ^0.5.16;\n\ncontract EthDonation {\n    string public storeName;\n    uint public sn = 0;\n    uint public dn = 0;\n    struct Item {\n        uint serialNo;\n        address donee;\n        uint itemId;\n        string itemName;\n        uint amount;\n        uint transporting;\n        uint recieved;\n        bool isAcceptable;\n    }\n    struct Donation {\n        uint denoteNo;\n        address doner;\n        uint serialNo;\n        uint amount;\n        string itemName;\n        string trackingNo;\n        uint status;    // 0--confirm, 1--transporting, 2--received, 3--overtime cancel due, 4--doner cancel\n    }\n    \n    mapping(uint => Item) public items;\n    mapping(address => uint[]) private donees;\n    mapping(uint => Donation) public donations;\n    mapping(address => uint[]) private doners;\n    \n\n    Item[] public itemRecord;\n    Donation[] public donationRecord;\n\n\n    event updateItem(\n        uint serialNo,\n        address donee,\n        uint itemId,\n        string itemName,\n        uint amount,\n        uint transporting,\n        uint recieved,\n        bool isAcceptable\n    );\n        \n    event updateDonation(\n        uint donateNo,\n        address doner,\n        uint serialNo,\n        uint amount,\n        string itemName,\n        string trackingNo,\n        uint status\n    );\n\n    constructor() public {\n        storeName = \"Emergency Resource Donation Platform\";\n    }\n\n    function createItem(string memory _itemName, uint _amount) public {\n        require(bytes(_itemName).length > 0, \"Item's name is required\");\n        require(_amount > 0, \"Item's amount is required\");\n        sn++;\n        Item memory _item;\n        _item.serialNo = sn;\n        _item.donee = msg.sender;\n        _item.itemId = 0;\n        _item.itemName = _itemName;\n        _item.amount = _amount;\n        _item.transporting = 0;\n        _item.recieved = 0;\n        _item.isAcceptable = true;\n        items[sn] = _item;\n        \n        donees[msg.sender].push(sn);\n        \n        emit updateItem(\n            _item.serialNo,\n            _item.donee,\n            _item.itemId,\n            _item.itemName,\n            _item.amount,\n            _item.transporting,\n            _item.recieved,\n            _item.isAcceptable\n        );\n    }\n\n    function donateItem(uint _serialNo,  uint _amount) public {\n        Item memory _item = items[_serialNo];\n        require(_item.serialNo > 0 && _item.serialNo <= sn, 'Item should be in donation');\n        require(_amount > 0, \"Item's amount is required\");\n        require(_item.transporting + _item.recieved < _item.amount, 'Item is enough temporarily');\n        require(_item.isAcceptable, 'This donation is end');\n        require(msg.sender != _item.donee, 'cannot donate self');\n        dn++;\n        Donation memory _donation;\n        _donation.denoteNo = dn;\n        _donation.doner = msg.sender;\n        _donation.serialNo = _serialNo;\n        \n        if(_item.amount - _item.transporting - _item.recieved >  _amount) _donation.amount = _amount;\n        else _donation.amount = _item.amount - _item.transporting - _item.recieved;\n        _donation.itemName = _item.itemName;\n        _donation.trackingNo = '';\n        _donation.status = 0;\n        donations[dn] = _donation;\n        \n        doners[msg.sender].push(dn);\n\n        items[_serialNo].transporting += _donation.amount;\n\n        //Trigger an event\n        emit updateItem(\n            _item.serialNo,\n            _item.donee,\n            _item.itemId,\n            _item.itemName,\n            _item.amount,\n            _item.transporting,\n            _item.recieved,\n            _item.isAcceptable\n        );\n\n        emit updateDonation(\n            _donation.denoteNo,\n            _donation.doner,\n            _donation.serialNo,\n            _donation.amount,\n            _donation.itemName,\n            _donation.trackingNo,\n            _donation.status\n        );\n\n    }\n    \n    function transportItem(uint _denoteNo, string memory _trackingNo) public {\n        require(_denoteNo > 0 && _denoteNo <= dn, 'donation not exsit');\n        require(donations[_denoteNo].status == 0, 'item should been confirm');\n        uint _serialNo = donations[_denoteNo].serialNo;\n        \n        require(_serialNo > 0 && _serialNo <= sn, 'Item should be in donation');\n        require(items[_serialNo].serialNo == _serialNo, 'serialNo not match');\n        require(msg.sender == donations[_denoteNo].doner, 'should be signed by donee');\n\n        donations[_denoteNo].status = 1;\n        donations[_denoteNo].trackingNo = _trackingNo;\n        //Trigger an event\n        emit updateDonation(\n            donations[_denoteNo].denoteNo,\n            donations[_denoteNo].doner,\n            donations[_denoteNo].serialNo,\n            donations[_denoteNo].amount,\n            donations[_denoteNo].itemName,\n            donations[_denoteNo].trackingNo,\n            donations[_denoteNo].status\n        );\n    }\n\n    function receiveItem(uint _denoteNo) public {\n        require(_denoteNo > 0 && _denoteNo <= dn, 'donation not exsit');\n        require(donations[_denoteNo].status == 1, 'item should been tranporting');\n        uint _serialNo = donations[_denoteNo].serialNo;\n        \n        require(_serialNo > 0 && _serialNo <= sn, 'Item should be in donation');\n        require(items[_serialNo].serialNo == _serialNo, 'serialNo not match');\n        require(msg.sender == items[_serialNo].donee, 'should be signed by donee');\n\n        donations[_denoteNo].status = 2;\n        items[_serialNo].transporting -= donations[_denoteNo].amount;\n        items[_serialNo].recieved += donations[_denoteNo].amount;\n        if(items[_serialNo].recieved+ items[_serialNo].transporting >= items[_serialNo].amount) items[_serialNo].isAcceptable = false;\n        //Trigger an event\n        emit updateDonation(\n            donations[_denoteNo].denoteNo,\n            donations[_denoteNo].doner,\n            donations[_denoteNo].serialNo,\n            donations[_denoteNo].amount,\n            donations[_denoteNo].itemName,\n            donations[_denoteNo].trackingNo,\n            donations[_denoteNo].status\n        );\n\n        emit updateItem(\n            items[_serialNo].serialNo,\n            items[_serialNo].donee,\n            items[_serialNo].itemId,\n            items[_serialNo].itemName,\n            items[_serialNo].amount,\n            items[_serialNo].transporting,\n            items[_serialNo].recieved,\n            items[_serialNo].isAcceptable\n        );\n\n        itemRecord.push(items[_serialNo]);\n        donationRecord.push(donations[_denoteNo]);\n\n\n    }\n\n    function cancelDonation(uint _denoteNo) public {\n        require(_denoteNo > 0 && _denoteNo <= dn, 'donation not exsit');\n        require(donations[_denoteNo].status == 0, 'item cannot canceel');\n        uint _serialNo = donations[_denoteNo].serialNo;\n        \n        require(_serialNo > 0 && _serialNo <= sn, 'Item should be in donation');\n        require(items[_serialNo].serialNo == _serialNo, 'serialNo not match');\n        require(msg.sender == donations[_denoteNo].doner, 'should be cancelled by oneself');\n\n        donations[_denoteNo].status = 4;\n        items[_serialNo].transporting -= donations[_denoteNo].amount;\n        if(items[_serialNo].recieved + items[_serialNo].transporting >= items[_serialNo].amount) items[_serialNo].isAcceptable = false;\n    \n        \n        //Trigger an event\n        emit updateDonation(\n            donations[_denoteNo].denoteNo,\n            donations[_denoteNo].doner,\n            donations[_denoteNo].serialNo,\n            donations[_denoteNo].amount,\n            donations[_denoteNo].itemName,\n            donations[_denoteNo].trackingNo,\n            donations[_denoteNo].status\n        );\n        emit updateItem(\n            items[_serialNo].serialNo,\n            items[_serialNo].donee,\n            items[_serialNo].itemId,\n            items[_serialNo].itemName,\n            items[_serialNo].amount,\n            items[_serialNo].transporting,\n            items[_serialNo].recieved,\n            items[_serialNo].isAcceptable\n        );\n\n    }\n    \n    function endDonation(uint _serialNo) public {\n        Item memory _item = items[_serialNo];\n        require(_item.serialNo > 0 && _item.serialNo <= sn, 'Item should be in donation');\n        require(_item.isAcceptable, 'This donation is end');\n        require(msg.sender == items[_serialNo].donee, 'only end donation by oneself');\n\n        items[_serialNo].isAcceptable = false;\n       \n        //Trigger an event\n        emit updateItem(\n            items[_serialNo].serialNo,\n            items[_serialNo].donee,\n            items[_serialNo].itemId,\n            items[_serialNo].itemName,\n            items[_serialNo].amount,\n            items[_serialNo].transporting,\n            items[_serialNo].recieved,\n            items[_serialNo].isAcceptable\n        );\n\n    }\n\n    \n    function listSerialNo(address _donee) public view returns (uint[] memory) {\n        return donees[_donee];\n    }\n\n    function listDonateNo(address _doner) public view returns (uint[] memory) {\n        return doners[_doner];\n    }\n    // function itemRecords() public view returns() {\n    //     return itemRecord;\n    // }\n    function doneeRecord(uint _serialNo) public view returns (uint serialNo, string memory itemName, uint amount, uint transporting, uint recieved, bool isAcceptable) {\n        require(_serialNo > 0 && _serialNo <= sn, 'Item should be in donation');\n        string memory _itemName;\n        uint _amount;\n        uint _transporting;\n        uint _recieved;\n        bool _isAcceptable;\n        require(_serialNo ==  items[_serialNo].serialNo, 'Item sn not match');\n        _itemName = items[_serialNo].itemName;\n        _amount = items[_serialNo].amount;\n        _transporting = items[_serialNo].transporting;\n        _recieved = items[_serialNo].recieved;\n        _isAcceptable = items[_serialNo].isAcceptable;\n        //return Item[_serialNo];\n        return (_serialNo, _itemName, _amount, _transporting, _recieved, _isAcceptable);\n    }\n    // function donationRecords() public view{\n    //     return donationRecord;\n    // }\n    \n    function donerRecord(uint _donateNo) public view returns (uint denoteNo, uint serialNo, string memory itemName, uint amount, uint status) {\n        require(_donateNo > 0 && _donateNo <= dn, 'donation num out of range');\n        uint _serialNo;\n        string memory _itemName;\n        uint _amount;\n        uint _status;\n        require(_donateNo == donations[_donateNo].denoteNo, 'donation sn not match');\n        _serialNo = donations[_donateNo].serialNo;\n        _itemName = donations[_donateNo].itemName;\n        _amount = donations[_donateNo].amount;\n        _status = donations[_donateNo].status;\n        return (_donateNo, _serialNo, _itemName,_amount, _status);\n    }\n}",
  "sourcePath": "/Users/huanchengyang/EECE571G/EthbayDappReact/src/contracts/EthDonation.sol",
  "compiler": {
    "name": "solc",
    "version": "0.5.16+commit.9c3226ce.Emscripten.clang"
  },
  "schemaVersion": "3.0.23",
  "updatedAt": "2020-04-23T08:13:04.923Z",
  "devdoc": {
    "methods": {}
  },
  "userdoc": {
    "methods": {}
  }
}