{
  "contractName": "MoneyDonationPlatform",
  "abi": [
    {
      "anonymous": false,
      "inputs": [
        {
          "indexed": false,
          "internalType": "address",
          "name": "donee",
          "type": "address"
        },
        {
          "indexed": false,
          "internalType": "address",
          "name": "subcontract",
          "type": "address"
        }
      ],
      "name": "subcontractcreate",
      "type": "event"
    },
    {
      "constant": true,
      "inputs": [
        {
          "internalType": "address",
          "name": "",
          "type": "address"
        }
      ],
      "name": "campaigns",
      "outputs": [
        {
          "internalType": "contract MoneyDonation",
          "name": "",
          "type": "address"
        }
      ],
      "payable": false,
      "stateMutability": "view",
      "type": "function"
    },
    {
      "constant": false,
      "inputs": [
        {
          "internalType": "string",
          "name": "_donationCampaignName",
          "type": "string"
        },
        {
          "internalType": "string",
          "name": "_Description",
          "type": "string"
        },
        {
          "internalType": "uint256",
          "name": "_requiredAmount",
          "type": "uint256"
        }
      ],
      "name": "newMoneyDonation",
      "outputs": [],
      "payable": false,
      "stateMutability": "nonpayable",
      "type": "function"
    },
    {
      "constant": true,
      "inputs": [],
      "name": "getContract",
      "outputs": [
        {
          "internalType": "address",
          "name": "",
          "type": "address"
        }
      ],
      "payable": false,
      "stateMutability": "view",
      "type": "function"
    }
  ],
  "bytecode": "0x608060405234801561001057600080fd5b50612390806100206000396000f3fe608060405234801561001057600080fd5b50600436106100415760003560e01c80630549999d146100465780631601d0b5146101a2578063958f85bd14610226575b600080fd5b6101a06004803603606081101561005c57600080fd5b810190808035906020019064010000000081111561007957600080fd5b82018360208201111561008b57600080fd5b803590602001918460018302840111640100000000831117156100ad57600080fd5b91908080601f016020809104026020016040519081016040528093929190818152602001838380828437600081840152601f19601f8201169050808301925050505050505091929192908035906020019064010000000081111561011057600080fd5b82018360208201111561012257600080fd5b8035906020019184600183028401116401000000008311171561014457600080fd5b91908080601f016020809104026020016040519081016040528093929190818152602001838380828437600081840152601f19601f82011690508083019250505050505050919291929080359060200190929190505050610270565b005b6101e4600480360360208110156101b857600080fd5b81019080803573ffffffffffffffffffffffffffffffffffffffff16906020019092919050505061049c565b604051808273ffffffffffffffffffffffffffffffffffffffff1673ffffffffffffffffffffffffffffffffffffffff16815260200191505060405180910390f35b61022e6104cf565b604051808273ffffffffffffffffffffffffffffffffffffffff1673ffffffffffffffffffffffffffffffffffffffff16815260200191505060405180910390f35b600083838360405161028190610535565b808060200180602001848152602001838103835286818151815260200191508051906020019080838360005b838110156102c85780820151818401526020810190506102ad565b50505050905090810190601f1680156102f55780820380516001836020036101000a031916815260200191505b50838103825285818151815260200191508051906020019080838360005b8381101561032e578082015181840152602081019050610313565b50505050905090810190601f16801561035b5780820380516001836020036101000a031916815260200191505b5095505050505050604051809103906000f08015801561037f573d6000803e3d6000fd5b509050806000803373ffffffffffffffffffffffffffffffffffffffff1673ffffffffffffffffffffffffffffffffffffffff16815260200190815260200160002060006101000a81548173ffffffffffffffffffffffffffffffffffffffff021916908373ffffffffffffffffffffffffffffffffffffffff1602179055507f2da36e7c69b96869d5f8af9cca386e02a5a54b542823df1535c868871094be8d3382604051808373ffffffffffffffffffffffffffffffffffffffff1673ffffffffffffffffffffffffffffffffffffffff1681526020018273ffffffffffffffffffffffffffffffffffffffff1673ffffffffffffffffffffffffffffffffffffffff1681526020019250505060405180910390a150505050565b60006020528060005260406000206000915054906101000a900473ffffffffffffffffffffffffffffffffffffffff1681565b60008060003373ffffffffffffffffffffffffffffffffffffffff1673ffffffffffffffffffffffffffffffffffffffff16815260200190815260200160002060009054906101000a900473ffffffffffffffffffffffffffffffffffffffff16905090565b611e19806105438339019056fe60806040526000600355600060045560006005556000600655600060075560006008553480156200002f57600080fd5b5060405162001e1938038062001e19833981810160405260608110156200005557600080fd5b81019080805160405193929190846401000000008211156200007657600080fd5b838201915060208201858111156200008d57600080fd5b8251866001820283011164010000000082111715620000ab57600080fd5b8083526020830192505050908051906020019080838360005b83811015620000e1578082015181840152602081019050620000c4565b50505050905090810190601f1680156200010f5780820380516001836020036101000a031916815260200191505b50604052602001805160405193929190846401000000008211156200013357600080fd5b838201915060208201858111156200014a57600080fd5b82518660018202830111640100000000821117156200016857600080fd5b8083526020830192505050908051906020019080838360005b838110156200019e57808201518184015260208101905062000181565b50505050905090810190601f168015620001cc5780820380516001836020036101000a031916815260200191505b50604052602001805190602001909291905050508260019080519060200190620001f892919062000262565b5081600290805190602001906200021192919062000262565b5080600381905550336000806101000a81548173ffffffffffffffffffffffffffffffffffffffff021916908373ffffffffffffffffffffffffffffffffffffffff16021790555050505062000311565b828054600181600116156101000203166002900490600052602060002090601f016020900481019282601f10620002a557805160ff1916838001178555620002d6565b82800160010185558215620002d6579182015b82811115620002d5578251825591602001919060010190620002b8565b5b509050620002e59190620002e9565b5090565b6200030e91905b808211156200030a576000816000905550600101620002f0565b5090565b90565b611af880620003216000396000f3fe6080604052600436106101095760003560e01c80639012b9a911610095578063b5ebbcc411610064578063b5ebbcc414610832578063ba9b73d814610885578063da25de3c14610977578063e735b48a146109a2578063ed0c46c314610a8257610109565b80639012b9a9146105f957806395f8c33d14610624578063ab26c7c614610652578063ad25390a1461075257610109565b806348b9ef40116100dc57806348b9ef40146103275780635ab7f1a8146103525780636b294e2f1461037d57806374d8c643146104d9578063885e7c621461056957610109565b80630238cbdc1461010e57806302d05d3f1461027a5780633518be26146102d157806345f51600146102fc575b600080fd5b34801561011a57600080fd5b506101476004803603602081101561013157600080fd5b8101908080359060200190929190505050610aad565b6040518087815260200180602001806020018681526020018573ffffffffffffffffffffffffffffffffffffffff1673ffffffffffffffffffffffffffffffffffffffff16815260200184151515158152602001838103835288818151815260200191508051906020019080838360005b838110156101d35780820151818401526020810190506101b8565b50505050905090810190601f1680156102005780820380516001836020036101000a031916815260200191505b50838103825287818151815260200191508051906020019080838360005b8381101561023957808201518184015260208101905061021e565b50505050905090810190601f1680156102665780820380516001836020036101000a031916815260200191505b509850505050505050505060405180910390f35b34801561028657600080fd5b5061028f610c46565b604051808273ffffffffffffffffffffffffffffffffffffffff1673ffffffffffffffffffffffffffffffffffffffff16815260200191505060405180910390f35b3480156102dd57600080fd5b506102e6610c6b565b6040518082815260200191505060405180910390f35b34801561030857600080fd5b50610311610c71565b6040518082815260200191505060405180910390f35b34801561033357600080fd5b5061033c610c77565b6040518082815260200191505060405180910390f35b34801561035e57600080fd5b50610367610c7d565b6040518082815260200191505060405180910390f35b6104d76004803603606081101561039357600080fd5b8101908080359060200190929190803590602001906401000000008111156103ba57600080fd5b8201836020820111156103cc57600080fd5b803590602001918460018302840111640100000000831117156103ee57600080fd5b91908080601f016020809104026020016040519081016040528093929190818152602001838380828437600081840152601f19601f8201169050808301925050505050505091929192908035906020019064010000000081111561045157600080fd5b82018360208201111561046357600080fd5b8035906020019184600183028401116401000000008311171561048557600080fd5b91908080601f016020809104026020016040519081016040528093929190818152602001838380828437600081840152601f19601f820116905080830192505050505050509192919290505050610c83565b005b3480156104e557600080fd5b506104ee61100b565b6040518080602001828103825283818151815260200191508051906020019080838360005b8381101561052e578082015181840152602081019050610513565b50505050905090810190601f16801561055b5780820380516001836020036101000a031916815260200191505b509250505060405180910390f35b34801561057557600080fd5b5061057e6110ad565b6040518080602001828103825283818151815260200191508051906020019080838360005b838110156105be5780820151818401526020810190506105a3565b50505050905090810190601f1680156105eb5780820380516001836020036101000a031916815260200191505b509250505060405180910390f35b34801561060557600080fd5b5061060e61114f565b6040518082815260200191505060405180910390f35b6106506004803603602081101561063a57600080fd5b8101908080359060200190929190505050611159565b005b34801561065e57600080fd5b5061068b6004803603602081101561067557600080fd5b81019080803590602001909291905050506114cc565b604051808681526020018581526020018473ffffffffffffffffffffffffffffffffffffffff1673ffffffffffffffffffffffffffffffffffffffff1681526020018060200183151515158152602001828103825284818151815260200191508051906020019080838360005b838110156107135780820151818401526020810190506106f8565b50505050905090810190601f1680156107405780820380516001836020036101000a031916815260200191505b50965050505050505060405180910390f35b34801561075e57600080fd5b506108186004803603602081101561077557600080fd5b810190808035906020019064010000000081111561079257600080fd5b8201836020820111156107a457600080fd5b803590602001918460018302840111640100000000831117156107c657600080fd5b91908080601f016020809104026020016040519081016040528093929190818152602001838380828437600081840152601f19601f8201169050808301925050505050505091929192905050506115c7565b604051808215151515815260200191505060405180910390f35b34801561083e57600080fd5b5061086b6004803603602081101561085557600080fd5b81019080803590602001909291905050506115e9565b604051808215151515815260200191505060405180910390f35b34801561089157600080fd5b50610975600480360360608110156108a857600080fd5b8101908080359060200190929190803573ffffffffffffffffffffffffffffffffffffffff169060200190929190803590602001906401000000008111156108ef57600080fd5b82018360208201111561090157600080fd5b8035906020019184600183028401116401000000008311171561092357600080fd5b91908080601f016020809104026020016040519081016040528093929190818152602001838380828437600081840152601f19601f8201169050808301925050505050505091929192905050506115fb565b005b34801561098357600080fd5b5061098c611904565b6040518082815260200191505060405180910390f35b3480156109ae57600080fd5b50610a68600480360360208110156109c557600080fd5b81019080803590602001906401000000008111156109e257600080fd5b8201836020820111156109f457600080fd5b80359060200191846001830284011164010000000083111715610a1657600080fd5b91908080601f016020809104026020016040519081016040528093929190818152602001838380828437600081840152601f19601f82011690508083019250505050505050919291929050505061190a565b604051808215151515815260200191505060405180910390f35b348015610a8e57600080fd5b50610a9761192c565b6040518082815260200191505060405180910390f35b6009602052806000526040600020600091509050806000015490806001018054600181600116156101000203166002900480601f016020809104026020016040519081016040528092919081815260200182805460018160011615610100020316600290048015610b5f5780601f10610b3457610100808354040283529160200191610b5f565b820191906000526020600020905b815481529060010190602001808311610b4257829003601f168201915b505050505090806002018054600181600116156101000203166002900480601f016020809104026020016040519081016040528092919081815260200182805460018160011615610100020316600290048015610bfd5780601f10610bd257610100808354040283529160200191610bfd565b820191906000526020600020905b815481529060010190602001808311610be057829003601f168201915b5050505050908060030154908060040160009054906101000a900473ffffffffffffffffffffffffffffffffffffffff16908060040160149054906101000a900460ff16905086565b6000809054906101000a900473ffffffffffffffffffffffffffffffffffffffff1681565b60075481565b60055481565b60035481565b60045481565b60008311610cf9576040517f08c379a00000000000000000000000000000000000000000000000000000000081526004018080602001828103825260198152602001807f4974656d2773207072696365206973207265717569726564210000000000000081525060200191505060405180910390fd5b82341015610d6f576040517f08c379a00000000000000000000000000000000000000000000000000000000081526004018080602001828103825260198152602001807f5061796d656e742073686f756c6420626520656e6f756768210000000000000081525060200191505060405180910390fd5b6007600081548092919060010191905055506040518060c0016040528060075481526020018281526020018381526020018481526020013373ffffffffffffffffffffffffffffffffffffffff16815260200160011515815250600960006007548152602001908152602001600020600082015181600001556020820151816001019080519060200190610e04929190611932565b506040820151816002019080519060200190610e21929190611932565b506060820151816003015560808201518160040160006101000a81548173ffffffffffffffffffffffffffffffffffffffff021916908373ffffffffffffffffffffffffffffffffffffffff16021790555060a08201518160040160146101000a81548160ff0219169083151502179055509050508260045401600481905550826003540360038190555082600654016006819055507f91b0a628c3d877b3330c5ea599e16bd5194e28ec03fb8df58cdcf9db4e713ca9818484336003546040518080602001868152602001806020018573ffffffffffffffffffffffffffffffffffffffff1673ffffffffffffffffffffffffffffffffffffffff168152602001848152602001838103835288818151815260200191508051906020019080838360005b83811015610f61578082015181840152602081019050610f46565b50505050905090810190601f168015610f8e5780820380516001836020036101000a031916815260200191505b50838103825286818151815260200191508051906020019080838360005b83811015610fc7578082015181840152602081019050610fac565b50505050905090810190601f168015610ff45780820380516001836020036101000a031916815260200191505b5097505050505050505060405180910390a1505050565b606060028054600181600116156101000203166002900480601f0160208091040260200160405190810160405280929190818152602001828054600181600116156101000203166002900480156110a35780601f10611078576101008083540402835291602001916110a3565b820191906000526020600020905b81548152906001019060200180831161108657829003601f168201915b5050505050905090565b606060018054600181600116156101000203166002900480601f0160208091040260200160405190810160405280929190818152602001828054600181600116156101000203166002900480156111455780601f1061111a57610100808354040283529160200191611145565b820191906000526020600020905b81548152906001019060200180831161112857829003601f168201915b5050505050905090565b6000600354905090565b6111616119b2565b600a60008381526020019081526020016000206040518060a001604052908160008201548152602001600182015481526020016002820160009054906101000a900473ffffffffffffffffffffffffffffffffffffffff1673ffffffffffffffffffffffffffffffffffffffff1673ffffffffffffffffffffffffffffffffffffffff168152602001600382018054600181600116156101000203166002900480601f0160208091040260200160405190810160405280929190818152602001828054600181600116156101000203166002900480156112825780601f1061125757610100808354040283529160200191611282565b820191906000526020600020905b81548152906001019060200180831161126557829003601f168201915b505050505081526020016004820160009054906101000a900460ff1615151515815250509050600181608001901515908115158152505080600a6000848152602001908152602001600020600082015181600001556020820151816001015560408201518160020160006101000a81548173ffffffffffffffffffffffffffffffffffffffff021916908373ffffffffffffffffffffffffffffffffffffffff1602179055506060820151816003019080519060200190611344929190611932565b5060808201518160040160006101000a81548160ff0219169083151502179055509050506000816040015190508073ffffffffffffffffffffffffffffffffffffffff166108fc83602001519081150290604051600060405180830381858888f193505050501580156113bb573d6000803e3d6000fd5b508160200151600554016005819055508160200151600654036006819055507f1d1f8c06b40d5d843141e9b0c2998b03b74f9bc6466977ff7c8136fa3c01fe1682602001518284606001516001604051808581526020018473ffffffffffffffffffffffffffffffffffffffff1673ffffffffffffffffffffffffffffffffffffffff1681526020018060200183151515158152602001828103825284818151815260200191508051906020019080838360005b8381101561148a57808201518184015260208101905061146f565b50505050905090810190601f1680156114b75780820380516001836020036101000a031916815260200191505b509550505050505060405180910390a1505050565b600a6020528060005260406000206000915090508060000154908060010154908060020160009054906101000a900473ffffffffffffffffffffffffffffffffffffffff1690806003018054600181600116156101000203166002900480601f0160208091040260200160405190810160405280929190818152602001828054600181600116156101000203166002900480156115aa5780601f1061157f576101008083540402835291602001916115aa565b820191906000526020600020905b81548152906001019060200180831161158d57829003601f168201915b5050505050908060040160009054906101000a900460ff16905085565b600081600190805190602001906115df9291906119f9565b5060019050919050565b60008160038190555060019050919050565b60008311611671576040517f08c379a00000000000000000000000000000000000000000000000000000000081526004018080602001828103825260198152602001807f416d6f756e74205370656e74206973207265717569726564210000000000000081525060200191505060405180910390fd5b6000809054906101000a900473ffffffffffffffffffffffffffffffffffffffff1673ffffffffffffffffffffffffffffffffffffffff163373ffffffffffffffffffffffffffffffffffffffff1614611716576040517f08c379a0000000000000000000000000000000000000000000000000000000008152600401808060200182810382526025815260200180611a9f6025913960400191505060405180910390fd5b6008600081548092919060010191905055506040518060a0016040528060085481526020018481526020018373ffffffffffffffffffffffffffffffffffffffff16815260200182815260200160001515815250600a60006008548152602001908152602001600020600082015181600001556020820151816001015560408201518160020160006101000a81548173ffffffffffffffffffffffffffffffffffffffff021916908373ffffffffffffffffffffffffffffffffffffffff16021790555060608201518160030190805190602001906117f6929190611932565b5060808201518160040160006101000a81548160ff0219169083151502179055509050507f1d1f8c06b40d5d843141e9b0c2998b03b74f9bc6466977ff7c8136fa3c01fe168383836000604051808581526020018473ffffffffffffffffffffffffffffffffffffffff1673ffffffffffffffffffffffffffffffffffffffff1681526020018060200183151515158152602001828103825284818151815260200191508051906020019080838360005b838110156118c25780820151818401526020810190506118a7565b50505050905090810190601f1680156118ef5780820380516001836020036101000a031916815260200191505b509550505050505060405180910390a1505050565b60065481565b600081600290805190602001906119229291906119f9565b5060019050919050565b60085481565b828054600181600116156101000203166002900490600052602060002090601f016020900481019282601f1061197357805160ff19168380011785556119a1565b828001600101855582156119a1579182015b828111156119a0578251825591602001919060010190611985565b5b5090506119ae9190611a79565b5090565b6040518060a001604052806000815260200160008152602001600073ffffffffffffffffffffffffffffffffffffffff168152602001606081526020016000151581525090565b828054600181600116156101000203166002900490600052602060002090601f016020900481019282601f10611a3a57805160ff1916838001178555611a68565b82800160010185558215611a68579182015b82811115611a67578251825591602001919060010190611a4c565b5b509050611a759190611a79565b5090565b611a9b91905b80821115611a97576000816000905550600101611a7f565b5090565b9056fe4f6e6c7920636f6e74726163742063726561746f722063616e207370656e64206d6f6e6579a265627a7a72315820036b510cee7dc9a7073521a2c8f2111f19684d299d41bcb6307f23c9cd4e355264736f6c63430005100032a265627a7a72315820287de4a18b1361b632377882f05d169e71736c37a60f7b8efd8e799891c4faa064736f6c63430005100032",
  "source": "pragma solidity ^0.5.0;\n\nimport \"./MoneyDonation.sol\";\n\ncontract MoneyDonationPlatform {\n  struct Campaign {\n        uint donationID;\n        string donatorName;\n        string donationMessage;\n        uint donationAmount;\n        address payable donatorAddress;\n        bool isOpen;\n    }\n\n  event subcontractcreate(\n        address donee,\n        address subcontract\n    );\n\n  // index of created contracts\n\n  mapping(address => MoneyDonation) public campaigns;\n\n\n  // deploy a new contract\n\n  function newMoneyDonation(string memory _donationCampaignName,string memory _Description,uint _requiredAmount) public\n  {\n    MoneyDonation md = new MoneyDonation(_donationCampaignName,_Description,_requiredAmount);\n    campaigns[msg.sender] = md;\n    emit subcontractcreate(\n      msg.sender,\n      address(md)\n    );\n  }\n\n  function getContract()public view returns(address){\n    return address(campaigns[msg.sender]);\n  }\n\n\n}\n",
  "sourcePath": "/Users/huanchengyang/EECE571G/EECE571Project/src/contracts/MoneyDonationPlatform.sol",
  "compiler": {
    "name": "solc",
    "version": "0.5.16+commit.9c3226ce.Emscripten.clang"
  },
  "schemaVersion": "3.0.23",
  "updatedAt": "2020-04-24T05:38:28.278Z",
  "networkType": "ethereum",
  "devdoc": {
    "methods": {}
  },
  "userdoc": {
    "methods": {}
  }
}