{
  "contractName": "MoneyDonation",
  "abi": [
    {
      "inputs": [
        {
          "internalType": "string",
          "name": "_donationCampaignName",
          "type": "string"
        },
        {
          "internalType": "string",
          "name": "_Description",
          "type": "string"
        },
        {
          "internalType": "uint256",
          "name": "_requiredAmount",
          "type": "uint256"
        }
      ],
      "payable": false,
      "stateMutability": "nonpayable",
      "type": "constructor"
    },
    {
      "anonymous": false,
      "inputs": [
        {
          "indexed": false,
          "internalType": "string",
          "name": "donatorName",
          "type": "string"
        },
        {
          "indexed": false,
          "internalType": "uint256",
          "name": "donationAmount",
          "type": "uint256"
        },
        {
          "indexed": false,
          "internalType": "string",
          "name": "donationMessage",
          "type": "string"
        },
        {
          "indexed": false,
          "internalType": "address",
          "name": "donatorAddress",
          "type": "address"
        },
        {
          "indexed": false,
          "internalType": "uint256",
          "name": "requiredAmount",
          "type": "uint256"
        }
      ],
      "name": "MoneyDonated",
      "type": "event"
    },
    {
      "anonymous": false,
      "inputs": [
        {
          "indexed": false,
          "internalType": "uint256",
          "name": "spentAmount",
          "type": "uint256"
        },
        {
          "indexed": false,
          "internalType": "address payable",
          "name": "vendor",
          "type": "address"
        },
        {
          "indexed": false,
          "internalType": "string",
          "name": "extraInfo",
          "type": "string"
        },
        {
          "indexed": false,
          "internalType": "bool",
          "name": "isApproved",
          "type": "bool"
        }
      ],
      "name": "MoneySpent",
      "type": "event"
    },
    {
      "constant": true,
      "inputs": [],
      "name": "creator",
      "outputs": [
        {
          "internalType": "address",
          "name": "",
          "type": "address"
        }
      ],
      "payable": false,
      "stateMutability": "view",
      "type": "function"
    },
    {
      "constant": true,
      "inputs": [],
      "name": "donatedAmount",
      "outputs": [
        {
          "internalType": "uint256",
          "name": "",
          "type": "uint256"
        }
      ],
      "payable": false,
      "stateMutability": "view",
      "type": "function"
    },
    {
      "constant": true,
      "inputs": [
        {
          "internalType": "uint256",
          "name": "",
          "type": "uint256"
        }
      ],
      "name": "donationList",
      "outputs": [
        {
          "internalType": "uint256",
          "name": "donationID",
          "type": "uint256"
        },
        {
          "internalType": "string",
          "name": "donatorName",
          "type": "string"
        },
        {
          "internalType": "string",
          "name": "donationMessage",
          "type": "string"
        },
        {
          "internalType": "uint256",
          "name": "donationAmount",
          "type": "uint256"
        },
        {
          "internalType": "address payable",
          "name": "donatorAddress",
          "type": "address"
        },
        {
          "internalType": "bool",
          "name": "isCompleted",
          "type": "bool"
        }
      ],
      "payable": false,
      "stateMutability": "view",
      "type": "function"
    },
    {
      "constant": true,
      "inputs": [
        {
          "internalType": "uint256",
          "name": "",
          "type": "uint256"
        }
      ],
      "name": "expenseList",
      "outputs": [
        {
          "internalType": "uint256",
          "name": "expenseID",
          "type": "uint256"
        },
        {
          "internalType": "uint256",
          "name": "spentAmount",
          "type": "uint256"
        },
        {
          "internalType": "address payable",
          "name": "vendor",
          "type": "address"
        },
        {
          "internalType": "string",
          "name": "extraInfo",
          "type": "string"
        },
        {
          "internalType": "bool",
          "name": "isApproved",
          "type": "bool"
        }
      ],
      "payable": false,
      "stateMutability": "view",
      "type": "function"
    },
    {
      "constant": true,
      "inputs": [],
      "name": "remainingBalance",
      "outputs": [
        {
          "internalType": "uint256",
          "name": "",
          "type": "uint256"
        }
      ],
      "payable": false,
      "stateMutability": "view",
      "type": "function"
    },
    {
      "constant": true,
      "inputs": [],
      "name": "requiredAmount",
      "outputs": [
        {
          "internalType": "uint256",
          "name": "",
          "type": "uint256"
        }
      ],
      "payable": false,
      "stateMutability": "view",
      "type": "function"
    },
    {
      "constant": true,
      "inputs": [],
      "name": "spentAmount",
      "outputs": [
        {
          "internalType": "uint256",
          "name": "",
          "type": "uint256"
        }
      ],
      "payable": false,
      "stateMutability": "view",
      "type": "function"
    },
    {
      "constant": true,
      "inputs": [],
      "name": "totalDonator",
      "outputs": [
        {
          "internalType": "uint256",
          "name": "",
          "type": "uint256"
        }
      ],
      "payable": false,
      "stateMutability": "view",
      "type": "function"
    },
    {
      "constant": true,
      "inputs": [],
      "name": "totalExpense",
      "outputs": [
        {
          "internalType": "uint256",
          "name": "",
          "type": "uint256"
        }
      ],
      "payable": false,
      "stateMutability": "view",
      "type": "function"
    },
    {
      "constant": false,
      "inputs": [
        {
          "internalType": "string",
          "name": "_Description",
          "type": "string"
        }
      ],
      "name": "updateDescription",
      "outputs": [
        {
          "internalType": "bool",
          "name": "",
          "type": "bool"
        }
      ],
      "payable": false,
      "stateMutability": "nonpayable",
      "type": "function"
    },
    {
      "constant": false,
      "inputs": [
        {
          "internalType": "uint256",
          "name": "_requiredAmount",
          "type": "uint256"
        }
      ],
      "name": "updateRequiredAmount",
      "outputs": [
        {
          "internalType": "bool",
          "name": "",
          "type": "bool"
        }
      ],
      "payable": false,
      "stateMutability": "nonpayable",
      "type": "function"
    },
    {
      "constant": true,
      "inputs": [],
      "name": "getRequiredAmount",
      "outputs": [
        {
          "internalType": "uint256",
          "name": "",
          "type": "uint256"
        }
      ],
      "payable": false,
      "stateMutability": "view",
      "type": "function"
    },
    {
      "constant": true,
      "inputs": [],
      "name": "getCampaignName",
      "outputs": [
        {
          "internalType": "string",
          "name": "",
          "type": "string"
        }
      ],
      "payable": false,
      "stateMutability": "view",
      "type": "function"
    },
    {
      "constant": true,
      "inputs": [],
      "name": "getCampaignCreatorAddress",
      "outputs": [
        {
          "internalType": "address",
          "name": "",
          "type": "address"
        }
      ],
      "payable": false,
      "stateMutability": "view",
      "type": "function"
    },
    {
      "constant": false,
      "inputs": [
        {
          "internalType": "string",
          "name": "_Name",
          "type": "string"
        }
      ],
      "name": "updateCampaignName",
      "outputs": [
        {
          "internalType": "bool",
          "name": "",
          "type": "bool"
        }
      ],
      "payable": false,
      "stateMutability": "nonpayable",
      "type": "function"
    },
    {
      "constant": true,
      "inputs": [],
      "name": "getCampaignDescription",
      "outputs": [
        {
          "internalType": "string",
          "name": "",
          "type": "string"
        }
      ],
      "payable": false,
      "stateMutability": "view",
      "type": "function"
    },
    {
      "constant": false,
      "inputs": [
        {
          "internalType": "uint256",
          "name": "amount",
          "type": "uint256"
        },
        {
          "internalType": "string",
          "name": "_Message",
          "type": "string"
        },
        {
          "internalType": "string",
          "name": "_DonatorName",
          "type": "string"
        }
      ],
      "name": "donateMoney",
      "outputs": [],
      "payable": true,
      "stateMutability": "payable",
      "type": "function"
    },
    {
      "constant": false,
      "inputs": [
        {
          "internalType": "uint256",
          "name": "_amount",
          "type": "uint256"
        },
        {
          "internalType": "address payable",
          "name": "_vendor",
          "type": "address"
        },
        {
          "internalType": "string",
          "name": "_description",
          "type": "string"
        }
      ],
      "name": "spendMoney",
      "outputs": [],
      "payable": false,
      "stateMutability": "nonpayable",
      "type": "function"
    },
    {
      "constant": false,
      "inputs": [
        {
          "internalType": "uint256",
          "name": "expenseID",
          "type": "uint256"
        }
      ],
      "name": "approveSpending",
      "outputs": [],
      "payable": true,
      "stateMutability": "payable",
      "type": "function"
    }
  ],
  "bytecode": "0x60806040526000600355600060045560006005556000600655600060075560006008553480156200002f57600080fd5b5060405162001ea438038062001ea4833981810160405260608110156200005557600080fd5b81019080805160405193929190846401000000008211156200007657600080fd5b838201915060208201858111156200008d57600080fd5b8251866001820283011164010000000082111715620000ab57600080fd5b8083526020830192505050908051906020019080838360005b83811015620000e1578082015181840152602081019050620000c4565b50505050905090810190601f1680156200010f5780820380516001836020036101000a031916815260200191505b50604052602001805160405193929190846401000000008211156200013357600080fd5b838201915060208201858111156200014a57600080fd5b82518660018202830111640100000000821117156200016857600080fd5b8083526020830192505050908051906020019080838360005b838110156200019e57808201518184015260208101905062000181565b50505050905090810190601f168015620001cc5780820380516001836020036101000a031916815260200191505b50604052602001805190602001909291905050508260019080519060200190620001f892919062000262565b5081600290805190602001906200021192919062000262565b5080600381905550336000806101000a81548173ffffffffffffffffffffffffffffffffffffffff021916908373ffffffffffffffffffffffffffffffffffffffff16021790555050505062000311565b828054600181600116156101000203166002900490600052602060002090601f016020900481019282601f10620002a557805160ff1916838001178555620002d6565b82800160010185558215620002d6579182015b82811115620002d5578251825591602001919060010190620002b8565b5b509050620002e59190620002e9565b5090565b6200030e91905b808211156200030a576000816000905550600101620002f0565b5090565b90565b611b8380620003216000396000f3fe6080604052600436106101145760003560e01c8063885e7c62116100a0578063b5ebbcc411610064578063b5ebbcc414610894578063ba9b73d8146108e7578063da25de3c146109d9578063e735b48a14610a04578063ed0c46c314610ae457610114565b8063885e7c62146105cb5780639012b9a91461065b57806395f8c33d14610686578063ab26c7c6146106b4578063ad25390a146107b457610114565b806348b9ef40116100e757806348b9ef40146103325780635ab7f1a81461035d5780636b294e2f1461038857806374d8c643146104e4578063843e7cde1461057457610114565b80630238cbdc1461011957806302d05d3f146102855780633518be26146102dc57806345f5160014610307575b600080fd5b34801561012557600080fd5b506101526004803603602081101561013c57600080fd5b8101908080359060200190929190505050610b0f565b6040518087815260200180602001806020018681526020018573ffffffffffffffffffffffffffffffffffffffff1673ffffffffffffffffffffffffffffffffffffffff16815260200184151515158152602001838103835288818151815260200191508051906020019080838360005b838110156101de5780820151818401526020810190506101c3565b50505050905090810190601f16801561020b5780820380516001836020036101000a031916815260200191505b50838103825287818151815260200191508051906020019080838360005b83811015610244578082015181840152602081019050610229565b50505050905090810190601f1680156102715780820380516001836020036101000a031916815260200191505b509850505050505050505060405180910390f35b34801561029157600080fd5b5061029a610ca8565b604051808273ffffffffffffffffffffffffffffffffffffffff1673ffffffffffffffffffffffffffffffffffffffff16815260200191505060405180910390f35b3480156102e857600080fd5b506102f1610ccd565b6040518082815260200191505060405180910390f35b34801561031357600080fd5b5061031c610cd3565b6040518082815260200191505060405180910390f35b34801561033e57600080fd5b50610347610cd9565b6040518082815260200191505060405180910390f35b34801561036957600080fd5b50610372610cdf565b6040518082815260200191505060405180910390f35b6104e26004803603606081101561039e57600080fd5b8101908080359060200190929190803590602001906401000000008111156103c557600080fd5b8201836020820111156103d757600080fd5b803590602001918460018302840111640100000000831117156103f957600080fd5b91908080601f016020809104026020016040519081016040528093929190818152602001838380828437600081840152601f19601f8201169050808301925050505050505091929192908035906020019064010000000081111561045c57600080fd5b82018360208201111561046e57600080fd5b8035906020019184600183028401116401000000008311171561049057600080fd5b91908080601f016020809104026020016040519081016040528093929190818152602001838380828437600081840152601f19601f820116905080830192505050505050509192919290505050610ce5565b005b3480156104f057600080fd5b506104f961106d565b6040518080602001828103825283818151815260200191508051906020019080838360005b8381101561053957808201518184015260208101905061051e565b50505050905090810190601f1680156105665780820380516001836020036101000a031916815260200191505b509250505060405180910390f35b34801561058057600080fd5b5061058961110f565b604051808273ffffffffffffffffffffffffffffffffffffffff1673ffffffffffffffffffffffffffffffffffffffff16815260200191505060405180910390f35b3480156105d757600080fd5b506105e0611138565b6040518080602001828103825283818151815260200191508051906020019080838360005b83811015610620578082015181840152602081019050610605565b50505050905090810190601f16801561064d5780820380516001836020036101000a031916815260200191505b509250505060405180910390f35b34801561066757600080fd5b506106706111da565b6040518082815260200191505060405180910390f35b6106b26004803603602081101561069c57600080fd5b81019080803590602001909291905050506111e4565b005b3480156106c057600080fd5b506106ed600480360360208110156106d757600080fd5b8101908080359060200190929190505050611557565b604051808681526020018581526020018473ffffffffffffffffffffffffffffffffffffffff1673ffffffffffffffffffffffffffffffffffffffff1681526020018060200183151515158152602001828103825284818151815260200191508051906020019080838360005b8381101561077557808201518184015260208101905061075a565b50505050905090810190601f1680156107a25780820380516001836020036101000a031916815260200191505b50965050505050505060405180910390f35b3480156107c057600080fd5b5061087a600480360360208110156107d757600080fd5b81019080803590602001906401000000008111156107f457600080fd5b82018360208201111561080657600080fd5b8035906020019184600183028401116401000000008311171561082857600080fd5b91908080601f016020809104026020016040519081016040528093929190818152602001838380828437600081840152601f19601f820116905080830192505050505050509192919290505050611652565b604051808215151515815260200191505060405180910390f35b3480156108a057600080fd5b506108cd600480360360208110156108b757600080fd5b8101908080359060200190929190505050611674565b604051808215151515815260200191505060405180910390f35b3480156108f357600080fd5b506109d76004803603606081101561090a57600080fd5b8101908080359060200190929190803573ffffffffffffffffffffffffffffffffffffffff1690602001909291908035906020019064010000000081111561095157600080fd5b82018360208201111561096357600080fd5b8035906020019184600183028401116401000000008311171561098557600080fd5b91908080601f016020809104026020016040519081016040528093929190818152602001838380828437600081840152601f19601f820116905080830192505050505050509192919290505050611686565b005b3480156109e557600080fd5b506109ee61198f565b6040518082815260200191505060405180910390f35b348015610a1057600080fd5b50610aca60048036036020811015610a2757600080fd5b8101908080359060200190640100000000811115610a4457600080fd5b820183602082011115610a5657600080fd5b80359060200191846001830284011164010000000083111715610a7857600080fd5b91908080601f016020809104026020016040519081016040528093929190818152602001838380828437600081840152601f19601f820116905080830192505050505050509192919290505050611995565b604051808215151515815260200191505060405180910390f35b348015610af057600080fd5b50610af96119b7565b6040518082815260200191505060405180910390f35b6009602052806000526040600020600091509050806000015490806001018054600181600116156101000203166002900480601f016020809104026020016040519081016040528092919081815260200182805460018160011615610100020316600290048015610bc15780601f10610b9657610100808354040283529160200191610bc1565b820191906000526020600020905b815481529060010190602001808311610ba457829003601f168201915b505050505090806002018054600181600116156101000203166002900480601f016020809104026020016040519081016040528092919081815260200182805460018160011615610100020316600290048015610c5f5780601f10610c3457610100808354040283529160200191610c5f565b820191906000526020600020905b815481529060010190602001808311610c4257829003601f168201915b5050505050908060030154908060040160009054906101000a900473ffffffffffffffffffffffffffffffffffffffff16908060040160149054906101000a900460ff16905086565b6000809054906101000a900473ffffffffffffffffffffffffffffffffffffffff1681565b60075481565b60055481565b60035481565b60045481565b60008311610d5b576040517f08c379a00000000000000000000000000000000000000000000000000000000081526004018080602001828103825260198152602001807f4974656d2773207072696365206973207265717569726564210000000000000081525060200191505060405180910390fd5b82341015610dd1576040517f08c379a00000000000000000000000000000000000000000000000000000000081526004018080602001828103825260198152602001807f5061796d656e742073686f756c6420626520656e6f756768210000000000000081525060200191505060405180910390fd5b6007600081548092919060010191905055506040518060c0016040528060075481526020018281526020018381526020018481526020013373ffffffffffffffffffffffffffffffffffffffff16815260200160011515815250600960006007548152602001908152602001600020600082015181600001556020820151816001019080519060200190610e669291906119bd565b506040820151816002019080519060200190610e839291906119bd565b506060820151816003015560808201518160040160006101000a81548173ffffffffffffffffffffffffffffffffffffffff021916908373ffffffffffffffffffffffffffffffffffffffff16021790555060a08201518160040160146101000a81548160ff0219169083151502179055509050508260045401600481905550826003540360038190555082600654016006819055507f91b0a628c3d877b3330c5ea599e16bd5194e28ec03fb8df58cdcf9db4e713ca9818484336003546040518080602001868152602001806020018573ffffffffffffffffffffffffffffffffffffffff1673ffffffffffffffffffffffffffffffffffffffff168152602001848152602001838103835288818151815260200191508051906020019080838360005b83811015610fc3578082015181840152602081019050610fa8565b50505050905090810190601f168015610ff05780820380516001836020036101000a031916815260200191505b50838103825286818151815260200191508051906020019080838360005b8381101561102957808201518184015260208101905061100e565b50505050905090810190601f1680156110565780820380516001836020036101000a031916815260200191505b5097505050505050505060405180910390a1505050565b606060028054600181600116156101000203166002900480601f0160208091040260200160405190810160405280929190818152602001828054600181600116156101000203166002900480156111055780601f106110da57610100808354040283529160200191611105565b820191906000526020600020905b8154815290600101906020018083116110e857829003601f168201915b5050505050905090565b60008060009054906101000a900473ffffffffffffffffffffffffffffffffffffffff16905090565b606060018054600181600116156101000203166002900480601f0160208091040260200160405190810160405280929190818152602001828054600181600116156101000203166002900480156111d05780601f106111a5576101008083540402835291602001916111d0565b820191906000526020600020905b8154815290600101906020018083116111b357829003601f168201915b5050505050905090565b6000600354905090565b6111ec611a3d565b600a60008381526020019081526020016000206040518060a001604052908160008201548152602001600182015481526020016002820160009054906101000a900473ffffffffffffffffffffffffffffffffffffffff1673ffffffffffffffffffffffffffffffffffffffff1673ffffffffffffffffffffffffffffffffffffffff168152602001600382018054600181600116156101000203166002900480601f01602080910402602001604051908101604052809291908181526020018280546001816001161561010002031660029004801561130d5780601f106112e25761010080835404028352916020019161130d565b820191906000526020600020905b8154815290600101906020018083116112f057829003601f168201915b505050505081526020016004820160009054906101000a900460ff1615151515815250509050600181608001901515908115158152505080600a6000848152602001908152602001600020600082015181600001556020820151816001015560408201518160020160006101000a81548173ffffffffffffffffffffffffffffffffffffffff021916908373ffffffffffffffffffffffffffffffffffffffff16021790555060608201518160030190805190602001906113cf9291906119bd565b5060808201518160040160006101000a81548160ff0219169083151502179055509050506000816040015190508073ffffffffffffffffffffffffffffffffffffffff166108fc83602001519081150290604051600060405180830381858888f19350505050158015611446573d6000803e3d6000fd5b508160200151600554016005819055508160200151600654036006819055507f1d1f8c06b40d5d843141e9b0c2998b03b74f9bc6466977ff7c8136fa3c01fe1682602001518284606001516001604051808581526020018473ffffffffffffffffffffffffffffffffffffffff1673ffffffffffffffffffffffffffffffffffffffff1681526020018060200183151515158152602001828103825284818151815260200191508051906020019080838360005b838110156115155780820151818401526020810190506114fa565b50505050905090810190601f1680156115425780820380516001836020036101000a031916815260200191505b509550505050505060405180910390a1505050565b600a6020528060005260406000206000915090508060000154908060010154908060020160009054906101000a900473ffffffffffffffffffffffffffffffffffffffff1690806003018054600181600116156101000203166002900480601f0160208091040260200160405190810160405280929190818152602001828054600181600116156101000203166002900480156116355780601f1061160a57610100808354040283529160200191611635565b820191906000526020600020905b81548152906001019060200180831161161857829003601f168201915b5050505050908060040160009054906101000a900460ff16905085565b6000816001908051906020019061166a929190611a84565b5060019050919050565b60008160038190555060019050919050565b600083116116fc576040517f08c379a00000000000000000000000000000000000000000000000000000000081526004018080602001828103825260198152602001807f416d6f756e74205370656e74206973207265717569726564210000000000000081525060200191505060405180910390fd5b6000809054906101000a900473ffffffffffffffffffffffffffffffffffffffff1673ffffffffffffffffffffffffffffffffffffffff163373ffffffffffffffffffffffffffffffffffffffff16146117a1576040517f08c379a0000000000000000000000000000000000000000000000000000000008152600401808060200182810382526025815260200180611b2a6025913960400191505060405180910390fd5b6008600081548092919060010191905055506040518060a0016040528060085481526020018481526020018373ffffffffffffffffffffffffffffffffffffffff16815260200182815260200160001515815250600a60006008548152602001908152602001600020600082015181600001556020820151816001015560408201518160020160006101000a81548173ffffffffffffffffffffffffffffffffffffffff021916908373ffffffffffffffffffffffffffffffffffffffff16021790555060608201518160030190805190602001906118819291906119bd565b5060808201518160040160006101000a81548160ff0219169083151502179055509050507f1d1f8c06b40d5d843141e9b0c2998b03b74f9bc6466977ff7c8136fa3c01fe168383836000604051808581526020018473ffffffffffffffffffffffffffffffffffffffff1673ffffffffffffffffffffffffffffffffffffffff1681526020018060200183151515158152602001828103825284818151815260200191508051906020019080838360005b8381101561194d578082015181840152602081019050611932565b50505050905090810190601f16801561197a5780820380516001836020036101000a031916815260200191505b509550505050505060405180910390a1505050565b60065481565b600081600290805190602001906119ad929190611a84565b5060019050919050565b60085481565b828054600181600116156101000203166002900490600052602060002090601f016020900481019282601f106119fe57805160ff1916838001178555611a2c565b82800160010185558215611a2c579182015b82811115611a2b578251825591602001919060010190611a10565b5b509050611a399190611b04565b5090565b6040518060a001604052806000815260200160008152602001600073ffffffffffffffffffffffffffffffffffffffff168152602001606081526020016000151581525090565b828054600181600116156101000203166002900490600052602060002090601f016020900481019282601f10611ac557805160ff1916838001178555611af3565b82800160010185558215611af3579182015b82811115611af2578251825591602001919060010190611ad7565b5b509050611b009190611b04565b5090565b611b2691905b80821115611b22576000816000905550600101611b0a565b5090565b9056fe4f6e6c7920636f6e74726163742063726561746f722063616e207370656e64206d6f6e6579a265627a7a72315820c2a17acf78250e177ee74dd61cae0fee50a80ae4b88cd02115081b09030e80cd64736f6c63430005100032",
  "source": "pragma solidity ^0.5.0;\n\ncontract MoneyDonation {\n    address public creator;\n    string private donationCampaignName;\n    string private description;\n    uint public requiredAmount = 0;\n    uint public donatedAmount = 0;\n    uint public spentAmount = 0;\n    uint public remainingBalance = 0;\n    uint public totalDonator = 0;\n    uint public totalExpense = 0;\n\n    struct Donation {\n        uint donationID;\n        string donatorName;\n        string donationMessage;\n        uint donationAmount;\n        address payable donatorAddress;\n        bool isCompleted;\n    }\n\n    struct Expense {\n        uint expenseID;\n        uint spentAmount;\n        address payable vendor;\n        string extraInfo;\n        bool isApproved;\n    }\n\n    mapping(uint => Donation) public donationList;\n    mapping(uint => Expense) public expenseList;\n\n    event MoneyDonated(\n        string donatorName,\n        uint donationAmount,\n        string donationMessage,\n        address donatorAddress,\n        uint requiredAmount\n    );\n\n    event MoneySpent(\n        uint spentAmount,\n        address payable vendor,\n        string extraInfo,\n        bool isApproved\n    );\n\n    constructor(string memory _donationCampaignName,string memory _Description,uint _requiredAmount) public {\n        donationCampaignName = _donationCampaignName;\n        description = _Description;\n        requiredAmount = _requiredAmount;\n        creator = msg.sender;\n    }\n\n    function updateDescription(string memory _Description) public returns (bool) {\n        description = _Description;\n        return true;\n    }\n\n    function updateRequiredAmount(uint _requiredAmount) public returns (bool) {\n        requiredAmount = _requiredAmount;\n        return true;\n    }\n\n    function getRequiredAmount() public view returns (uint)  {\n        return requiredAmount;\n    }\n\n    function getCampaignName() public view returns (string memory)  {\n        return donationCampaignName;\n    }\n\n    function getCampaignCreatorAddress() public view returns (address)  {\n        return creator;\n    }\n\n    function updateCampaignName(string memory _Name) public returns (bool) {\n        donationCampaignName = _Name;\n        return true;\n    }\n\n    function getCampaignDescription() public view returns (string memory) {\n        return description;\n    }\n\n    function donateMoney(uint amount,string memory _Message,string memory _DonatorName) public payable {\n        require(amount > 0, \"Item's price is required!\");\n        require(msg.value >= amount, \"Payment should be enough!\");\n        totalDonator++;\n        donationList[totalDonator] = Donation(totalDonator,_DonatorName,_Message,amount,msg.sender,true);\n        donatedAmount = donatedAmount+amount;\n        requiredAmount = requiredAmount-amount;\n        remainingBalance = remainingBalance+amount;\n        emit MoneyDonated(_DonatorName,amount,_Message,msg.sender,requiredAmount);\n    }\n\n    function spendMoney(uint _amount,address payable _vendor,string memory _description) public {\n        require(_amount > 0, \"Amount Spent is required!\");\n        require(msg.sender == creator, \"Only contract creator can spend money\");\n\n        totalExpense++;\n        expenseList[totalExpense] = Expense(totalExpense,_amount,_vendor,_description, false);\n        emit MoneySpent(_amount,_vendor,_description,false);\n    }\n\n    function approveSpending(uint expenseID) public payable{\n        Expense memory expense = expenseList[expenseID];\n        expense.isApproved = true;\n        expenseList[expenseID]=expense;\n        address payable _vendor = expense.vendor;\n        _vendor.transfer(expense.spentAmount);\n        spentAmount = spentAmount+expense.spentAmount;\n        remainingBalance = remainingBalance - expense.spentAmount;\n        emit MoneySpent(expense.spentAmount,_vendor,expense.extraInfo,true);\n    }\n}",
  "sourcePath": "/Users/huanchengyang/EECE571G/EECE571Project/src/contracts/MoneyDonation.sol",
  "compiler": {
    "name": "solc",
    "version": "0.5.16+commit.9c3226ce.Emscripten.clang"
  },
  "schemaVersion": "3.0.23",
  "updatedAt": "2020-04-25T01:00:48.457Z",
  "devdoc": {
    "methods": {}
  },
  "userdoc": {
    "methods": {}
  }
}